:100000000C9489010C94BA010C94BA010C94BA01B5
:100010000C94BA010C94BA010C94BA010C94BA0174
:100020000C94BA010C94BA010C94BA010C94BA0164
:100030000C94BA010C94BA010C94BA010C94BA0154
:100040000C94BA010C94BA010C94BA010C94BA0144
:100050000C94BA010C94BA010C94BA010C943B11A3
:100060000C94BA010C9405110C94DB100C94BA0199
:100070000C94BA010C94BA010C94BA010C94BA0114
:100080000C94BA010C94BA010C94BA010C94BA0104
:100090000C94BA010C94BA010C94BA010C94BA01F4
:1000A0000C94BA010C94BA010C94BA010C94BA01E4
:1000B0000C94BA010C94BA010C94BA010C94BA01D4
:1000C0000C94BA010C94BA010C94BA010C94BA01C4
:1000D0000C94BA010C94BA010C94BA010C94BA01B4
:1000E0000C94BA010C94E2020C94710B0C94E2078C
:1000F0000C9468020C94D5090C943C0A0C94560696
:100100000C9474030C9457020C94410B0C9430081B
:100110000C946D030C945B030C9476020C943303E3
:100120000C9433080C94F9090C948A020C947C0208
:100130000C94E7050C9410030C94CB020C948E02E3
:100140000C9438020C94D3020C9484020C94060391
:100150000C946A030C94DB010C9481140C94A3049A
:100160000C944F020C9472020C9481040C94510371
:100170000C947B0D0C9464020C941E050C945E0A86
:100180000C941A030C9495040C9439080C946F0485
:100190000C945B020C94D8020C94F6020C94771326
:1001A0000C9498080C94F80B0C948C090C943D0258
:1001B0000C9447030C943D030C9465030C942403A6
:1001C0000C9436080C9492080C94D1040C94800280
:1001D0000C9472040C9429070C94FE020C946E0289
:1001E0000C9495080C9489090C946C040C9470037D
:1001F0000C94EC020C948F090C945E020C943C0855
:100200000C9453020C94040800000A0B02090C0D14
:100210000E080703040100000000000000000000B9
:1002200000000000000000000000000000000000CE
:10023000000000001211100000000000000000008B
:1002400000000000000000000000000000000000AE
:100250002200250028002B002E003100340002016E
:100260000000050108010B01000021002400270007
:100270002A002D00300033000101000004010701B5
:100280000A0105050505070508080808020202021B
:100290000A0A080804040404010101010101010122
:1002A0000303030303030303040707070C0C0C0CED
:1002B0000C0C0C0C020202020606060606060606D6
:1002C0000B0B0B0B0B0B0B0B010210202008081063
:1002D00020401020408002010201080402010102B6
:1002E000040810204080804020100804020180048F
:1002F00002018040201008040201080402010102EA
:100300000408102040800102040810204080771368
:10031000811411241FBECFEFD1E2DEBFCDBF00E0BC
:100320000CBF14E0A0E0B2E0E0E5FEE200E00BBFAD
:1003300002C007900D92AC38B107D9F72FE0ACE8B6
:10034000B4E001C01D92AA30B207E1F711E0C8E89D
:10035000D1E000E006C021970109802FFE010E9434
:10036000E016C738D10780E00807A9F70E947B1381
:100370000C9488140C94000090E0FC01E853FD4FAD
:1003800024918E579D4FFC018491882399F090E031
:10039000880F991FFC01E859FD4FA591B491FC010C
:1003A000E25BFD4F859194918FB7F894EC91E22B2D
:1003B000EC938FBF0895AF92BF92CF92DF92EF92EE
:1003C000FF920F931F93CF93DF936C017B018B01FF
:1003D000040F151FEB015E01AE18BF08C017D1074F
:1003E00059F06991D601ED91FC910190F081E02DD9
:1003F000C6011995892B79F7C501DF91CF911F911E
:100400000F91FF90EF90DF90CF90BF90AF90089545
:10041000282F30E0F901E85FFD4F9491F901E8538E
:10042000FD4F44912E573D4FF9012491222309F4A9
:1004300035C0992311F191509231F8F4E92FF0E091
:100440008827EA5DFD4F8F4F0C94E01657025B0240
:1004500038024F0253023D025E02640268026E02DD
:10046000720276027C0280023D0284028A028E02BF
:10047000809180008F7780938000E22FF0E0EE0F74
:10048000FF1FE25BFD4FA591B4918FB7F894EC91FB
:10049000611148C040954E234C938FBF08958091C1
:1004A00080008F7DE8CF80918000877FE4CF84B586
:1004B0008F7784BDE2CF84B58F7DFBCF8091B00074
:1004C0008F778093B000D9CF8091B0008F7DF9CF26
:1004D000809190008F7780939000CFCF8091900093
:1004E0008F7DF9CF80919000877FF5CF8091A0001C
:1004F0008F778093A000C1CF8091A0008F7DF9CF2E
:100500008091A000877FF5CF809120018F77809325
:100510002001B3CF809120018F7DF9CF8091200100
:10052000877FF5CF4E2BB8CF1F93CF93DF93182F34
:10053000EB010E94BC01209739F460E0812FDF912C
:10054000CF911F910C940802CF3FD10511F461E0C7
:10055000F5CFE12FF0E0E85FFD4FE491E150E231AB
:1005600008F0B3C0F0E08827E754FD4F8F4F0C949C
:10057000E016CB02D302D802E202EC026503F602D7
:10058000FE02060310031A03240333033D0365032D
:10059000470351035B0384B5806884BDC7BDDF9109
:1005A000CF911F91089584B5806284BDC8BDF7CFF7
:1005B00080918000806880938000D0938900C093F0
:1005C0008800EDCF80918000806280938000D0937E
:1005D0008B00C0938A00E3CF809180008860809375
:1005E0008000D0938D00C0938C00D9CF8091B00053
:1005F00080688093B000C093B300D1CF8091B000E9
:1006000080628093B000C093B400C9CF8091900005
:10061000806880939000D0939900C0939800BFCFDA
:1006200080919000806280939000D0939B00C09353
:100630009A00B5CF80919000886080939000D0930D
:100640009D00C0939C00ABCF8091A00080688093F8
:10065000A0008091A0008F7B8093A000D093A90080
:10066000C093A8009CCF8091A00080628093A000DE
:10067000D093AB00C093AA0092CF8091A000886075
:100680008093A000D093AD00C093AC0088CF809140
:100690002001806880932001D0932901C093280114
:1006A0007ECF80912001806280932001D0932B0126
:1006B000C0932A0174CF809120018860809320012B
:1006C000D0932D01C0932C016ACFC038D1050CF016
:1006D0003ECF33CF82E992E0089583EB92E0089514
:1006E000FC0186A197A10895EF92FF920F931F93AB
:1006F000CF93DF93FC01DB01EC01C459DF4F88810C
:10070000882351F0813009F485C0DF91CF911F918A
:100710000F91FF90EF900895EF01C859DF4F388196
:1007200056968C915697832780AB56969C915697F8
:1007300021E09227932791AB2196388157968C918F
:100740005797832783AB57969C9157979227932768
:1007500094AB21963881AA9758968C915897832705
:100760008883219658969C9158979227932798832F
:10077000AA963881A89759969C9159979327988360
:10078000219659968C915997822783278883529670
:100790008C91529782AB53968C91539785AB54961C
:1007A0008C9154972297888355968C91DF01AB5B8F
:1007B000BF4F8C93EF0110E000E07F018DE6E80E63
:1007C000F11C6096F70180818017110609F008F48A
:1007D0009CCF68A1888D0E94080269A1898D0E9422
:1007E00008026AA170E08A8D0E9494026BA18B8D31
:1007F0000E9408026CA18C8D0E9408026DA170E01D
:100800008D8D0E9494026EA18E8D0E9408020F5F52
:100810001F4FD7CFEF01C859DF4F56968C9156978F
:100820009881892780ABAF01405C5F4F9F012759BA
:100830003F4F57968C915797E90198818927EA0194
:100840008883405F5F4F2F5F3F4F58968C9158973A
:10085000E90198818927EA018883405F5F4F2F5F14
:100860003F4F59968C915997E90198818927EA0160
:10087000888352968C91529781AB53968C91539763
:100880006F97888354968C91549760968883559679
:100890008C91DF01AF59BF4F8C93EF0110E000E066
:1008A0007F01EDE6EE0EF11C6096F7018081801766
:1008B000110609F008F429CF68A1888D0E9408026A
:1008C00069A170E0898D0E9494026AA18A8D0E94BC
:1008D00008020F5F1F4FE8CF8BEC92E008958CEE7B
:1008E00092E00895FC01538D448D252F30E0842F34
:1008F00090E0821B930B541710F0CF960895019748
:100900000895FC01918D828D981761F0A28DAE0F34
:10091000BF2FB11D5D968C91928D9F5F9F73928FBB
:1009200090E008958FEF9FEF0895FC01918D828DE7
:10093000981731F0828DE80FF11D858D90E00895B4
:100940008FEF9FEF0895FC01918D228D892F90E00C
:10095000805C9F4F821B91098F7399270895FC013A
:10096000A48DA80FB92FB11DA35ABF4F2C91848D10
:1009700090E001968F739927848FA689B7892C936D
:10098000A089B1898C91837080648C93938D848DC0
:10099000981306C00288F389E02D80818F7D8083C3
:1009A0000895EF92FF920F931F93CF93DF93EC0183
:1009B00081E0888F9B8D8C8D98131AC0E889F98906
:1009C000808185FF15C09FB7F894EE89FF89608309
:1009D000E889F98980818370806480839FBF81E08A
:1009E00090E0DF91CF911F910F91FF90EF900895CC
:1009F000F62E0B8D10E00F5F1F4F0F731127E02EA7
:100A00008C8D8E110CC00FB607FCFACFE889F989DE
:100A1000808185FFF5CFCE010E94AF04F1CFEB8D31
:100A2000EC0FFD2FF11DE35AFF4FF0829FB7F894B2
:100A30000B8FEA89FB8980818062CFCFCF93DF93D0
:100A4000EC01888D8823B9F0AA89BB89E889F989E6
:100A50008C9185FD03C0808186FD0DC00FB607FC1B
:100A6000F7CF8C9185FFF2CF808185FFEDCFCE014E
:100A70000E94AF04E9CFDF91CF91089585E994E01A
:100A80000E94A30421E0892B09F420E0822F08951D
:100A900080E090E0892B29F00E943E0581110E94A0
:100AA000000080E090E0892B49F080E090E0892B05
:100AB00029F00E94000081110E94000080E090E077
:100AC000892B49F080E090E0892B29F00E940000FA
:100AD00081110E94000080E090E0892B49F080E0C5
:100AE00090E0892B29F00E94000081110C940000F5
:100AF0000895789484B5826084BD84B5816084BD96
:100B000085B5826085BD85B5816085BDEEE6F0E086
:100B1000808181608083E1E8F0E0108280818260E2
:100B20008083808181608083E0E8F0E08081816063
:100B30008083E1EBF0E0808184608083E0EBF0E093
:100B4000808181608083E1E9F0E080818260808340
:100B5000808181608083E0E9F0E080818160808332
:100B6000E1EAF0E08081826080838081816080831F
:100B7000E0EAF0E0808181608083E1E2F1E0808161
:100B800082608083808181608083E0E2F1E0808107
:100B900081608083EAE7F0E08081846080838081E7
:100BA000826080838081816080838081806880838F
:100BB0001092C10008952FB7F8946091910470913C
:100BC000920480919304909194042FBF08958A57C2
:100BD0009B4FFC0180810895CF93DF9300D01F923B
:100BE0001F92CDB7DEB72EE332E03A8329836B83C1
:100BF0005D834C83DC01ED91FC910190F081E02D4F
:100C0000AE014F5F5F4F67E070E019950F900F9056
:100C10000F900F900F90DF91CF910895DF92EF9298
:100C2000FF920F931F93CF93DF93082FD62EE42EBE
:100C3000F22E45E253E061E084E59AE00E94EC0583
:100C400010E0E80184E0CC0FDD1F8A95E1F7CA517E
:100C5000D64FD8A6E9A6FAA64EE353E061E084E5B4
:100C60009AE00E94EC0594E0000F111F9A95E1F7BD
:100C7000F801EA5EF54F108219AA81E08AAB4EE5D1
:100C800053E061E084E59AE00E94EC0588A50E94AB
:100C9000BC0189A50E94BC018AA5DF91CF911F915B
:100CA0000F91FF90EF90DF900C94BC010F931F9376
:100CB000CF93DF93643671054CF0FC01EA57FB4F8C
:100CC000208110E000E0222309F44DC0DA018B01FD
:100CD000EC01BC01615E7D4FED91FC910190F081D2
:100CE000E02DCA011995BE01685E7D4F2FEFDB0133
:100CF0002C93FE01E75EFD4F2EEF2083319680831B
:100D0000319690833196292F280F20952083319694
:100D1000008316961C9345E050E030E020E08C0103
:100D20000A5F1F4F0417150734F0A1912A0F311DD8
:100D30004F5F5F4FF7CF8C01085F1F4F8C0F9D1FD8
:100D4000FC01E15EFD4F209520830130B2E01B07DE
:100D500084F48A819B81DC01ED91FC910280F38116
:100D6000E02DA8011995C801DF91CF911F910F9136
:100D7000089549E753E063E0CE010E94EC050FEFD0
:100D80001FEFF1CF0F931F93CF93DF9300D000D0CD
:100D900000D01F92CDB7DEB78C0182E392E09A8338
:100DA00089831B821C821D821E821F8218861986DF
:100DB0001A86D801ED91FC910190F081E02DAE01F1
:100DC0004F5F5F4F6AE070E0C80119950E94DB0534
:100DD000F80160877187828793872A960FB6F89407
:100DE000DEBF0FBECDBFDF91CF911F910F91089550
:100DF000CF92DF92EF92FF92DC011D921D921D9225
:100E00001C921397FB0130E020E0419150E0022E4C
:100E100002C0440F551F0A94E2F7052E000C660B22
:100E2000770BCD90DD90ED90FC9013974C295D29C8
:100E30006E297F294D935D936D937C931397285F63
:100E40003F4F2032310509F7FF90EF90DF90CF90B0
:100E500008954F925F926F927F928F929F92AF927E
:100E6000BF92EF92FF920F931F93CF93DF9300D027
:100E70001F92CDB7DEB77C018B01FB01808190E032
:100E8000B0E0A0E0F70182839383A483B583FB01E4
:100E90002181922BF70182839383A483B583FB0185
:100EA0002281A22BF70182839383A483B583FB0164
:100EB0002381B22BF70182839383A483B583FB0143
:100EC000848190E0B0E0A0E0F70186839783A0875B
:100ED000B187FB012581922BF70186839783A08739
:100EE000B187FB012681A22BF70186839783A08718
:100EF000B187FB012781B22BF70186839783A087F7
:100F0000B187FB01808590E0B0E0A0E0F701828727
:100F10009387A487B587FB012185922BF7018287F0
:100F20009387A487B587FB012285A22BF7018287CF
:100F30009387A487B587FB012385B22BF7018287AE
:100F40009387A487B587645F7F4FCE0101960E9487
:100F5000F80689819A81AB81BC814C015D01F0E189
:100F60008F0E911CA11CB11CA801415F5F4FFA01BB
:100F700020E130E02901712C612C481459046A04E5
:100F80007B0428F4618161932F5F3F4FF3CFF80119
:100F9000E80FF91F1786F7015787468740960F908D
:100FA0000F900F900F90DF91CF911F910F91FF90B5
:100FB000EF90BF90AF909F908F907F906F905F90D9
:100FC0004F9008950F931F93CF93DF93EC018B0104
:100FD00002960E942907F801E80FF91F20812A8B49
:100FE00021812B8B22812C8B23812D8B24812E8B95
:100FF00025812F8B2681288F2781298F0896DF91C5
:10100000CF911F910F9108950F931F93CF93DF936B
:10101000EC018C010A5F1F4FC8010E94E2072AA160
:101020003BA1A901559547958CA19DA1840F951FC2
:10103000E8A1F9A120FF08C0DC012D913C91E20F4D
:10104000F31F0190F081E02DB801DF91CF911F9146
:101050000F911994FC0140835183128213820895E9
:1010600082EB93E0089586E092E0089583ED93E0AB
:10107000089584EF93E008954F925F926F927F926C
:101080008F929F92AF92BF92EF92FF920F931F9316
:10109000CF93DF9300D01F92CDB7DEB77C018B01D9
:1010A000FB018191BF01F7018283CE0101960E946D
:1010B000F80689819A81AB81BC814C015D01F5E024
:1010C0008F0E911CA11CB11CA8014C5F5F4FFA014F
:1010D00025E030E02901712C612C481459046A0480
:1010E0007B0428F4618161932F5F3F4FF3CFF801B8
:1010F000E80FF91F1482F7015483438305960F907C
:101100000F900F900F90DF91CF911F910F91FF9053
:10111000EF90BF90AF909F908F907F906F905F9077
:101120004F90089587E094E0089588E294E0089550
:101130004F925F926F927F928F929F92AF92BF92E7
:10114000CF92DF92EF92FF920F931F93CF93DF9393
:10115000CDB7DEB72C970FB6F894DEBF0FBECDBF6C
:101160007C018B01DB018C9190E0F70193838283FA
:1011700011962C91922B938382836E5F7F4FCE01C9
:1011800001960E94F80689809A80AB80BC80240179
:101190003501F6E04F0E511C611C711C98012B5F4C
:1011A0003F4FF90186E090E0AC0170E060E044154B
:1011B00055056605770520F4418141930196F4CFEA
:1011C000B4016A5F7F4FF801E80DF91D1582D70160
:1011D00015963C932E931497600F711FCE010596C0
:1011E0000E94F806BAE08B0E911C4D805E806F80E5
:1011F0007884C401092C000CAA0BBB0B5C016D01A7
:10120000A40CB51CC61CD71CF801E80DF91DAF01D4
:10121000401B510B70E060E04A155B056C057D05D5
:1012200038F42191AF0142505109DA012C93EFCFEC
:10123000480C591CB801640D751DFB0131971082D3
:10124000C4010197800F911FF70197838683CE0118
:1012500009960E94F80692012C5F3F4F89849A8478
:10126000AB84BC84A901032E000C660B770B480DE0
:10127000591D6A1D7B1DF801E20FF31FCF01801B72
:10128000910BB0E0A0E084179507A607B70728F4F4
:101290008191DF0112978C93F1CFC901880D991DBF
:1012A000F801E80FF91FDF0111971C922150310955
:1012B000020F131FD70119961C930E9318972181C3
:1012C000428150E070E060E0BA0155274427522B7C
:1012D0002081422B2381722BF70142875387648739
:1012E000758704962C960FB6F894DEBF0FBECDBF5F
:1012F000DF91CF911F910F91FF90EF90DF90CF90F2
:10130000BF90AF909F908F907F906F905F904F9025
:10131000089581E494E0089582E694E00895FC0144
:10132000DB014C9150E070E060E0428353836483C2
:10133000758311968C911197582B42835383648344
:10134000758312968C911297682B42835383648322
:10135000758313968C911397782B42835383648300
:10136000758314964C91149750E070E060E04683CA
:1013700057836087718715968C911597582B4683F4
:1013800057836087718716968C911697682B4683D2
:1013900057836087718717968C91782B4683578384
:1013A0006087718788E090E00895DC01FB01129668
:1013B0008C911297808313968C9113978183149646
:1013C0008C911497828315968C911597838316962A
:1013D0008C911697848317968C911797858318960E
:1013E0008C911897868319968C91878388E090E07A
:1013F0000895EF92FF920F931F93CF93DF938C0189
:10140000EB01FC01828188838381898384818A83C3
:1014100085818B8386818C8387818D8380858E8374
:1014200081858F83828588878385898784858A875C
:1014300085858B87A685B785FD0101900020E9F79A
:1014400031977F01EA1AFB0AA70170E060E0CE0144
:101450000C960E942A08F80166857785A701CE01BF
:1014600040960E946C15C7014096DF91CF911F9165
:101470000F91FF90EF9008950F931F93CF93DF93F9
:101480008C01EB0102960E94F909F8012289C80F2C
:10149000D91F28832389298324892A8325892B839B
:1014A00026892C8327892D83208D2E83218D2F83C0
:1014B0000896DF91CF911F910F9108954F925F92FF
:1014C0006F927F928F929F92AF92BF92CF92DF9254
:1014D000EF92FF920F931F93CF93DF93EC017B0169
:1014E0008A81FB0180838B8181838C8182838D81C2
:1014F00083833496412C512C320104E010E09F018B
:101500002F5F3F4FCF010296DF011396A8010C5FBA
:101510001F4F8A809B80AC80BD80481459046A04A8
:101520007B04C8F4AA85BB85A40FB51F14974C9102
:1015300011962C91119712969C91129713968C915B
:1015400040832183928383838FEF481A580A680A65
:10155000780A3496D4CF4C8540834D85F901408379
:101560002E85FC0120838F858C93F701E00FF11FFE
:10157000412C512C3201AF019F012F5F3F4FCF0112
:101580000296DF0113960C5F1F4F8C849D84AE84FE
:10159000BF84481459046A047B04D8F4CF01841B27
:1015A000950BAC89BD89A80FB91F3C9111962C9160
:1015B000119712969C91129713968C9130832183E8
:1015C000928383838FEF481A580A680A780A349600
:1015D000D3CF4E8940834F89F9014083288DFC0188
:1015E0002083898D8C93412C512C32018E899F89C7
:1015F000A88DB98D481659066A067B0680F55201FA
:10160000AA0CBB1CEC8DFD8DEA0DFB1DA081B181E8
:10161000FD0101900020E9F731976F01CA1ADB0A3A
:10162000A60170E060E0C701800F911F0E942A08A8
:101630000C5F1F4F8C8D9D8DA80EB91EF50160812A
:101640007181A601C701800F911F0E946C150C0DBE
:101650001D1DFFEF4F1A5F0A6F0A7F0AC7CFC8012F
:10166000DF91CF911F910F91FF90EF90DF90CF907E
:10167000BF90AF909F908F907F906F905F904F90B2
:101680000895EF92FF920F931F93CF93DF938C01F6
:101690007B01DC0112962C911297FB012193CF0163
:1016A0001396ED91FC91EF0109900020E9F7219745
:1016B000CE1BDF0BAE0170E060E00E942A08D8016B
:1016C00013966D917C91AE01C70105960E946C1531
:1016D000CE010596DF91CF911F910F91FF90EF9072
:1016E0000895CF92DF92EF92FF920F931F93CF93C3
:1016F000DF936C01EB01DC0112968C9112978883C9
:1017000013968C91139789831496ED91FC91DF01C8
:101710000D900020E9F78D01015011090E1B1F0BE0
:10172000A80170E060E0CE0102960E942A08F6014E
:1017300064817581A801CE0106960E946C15C801CE
:101740000696F601A681B781FD0101900020E9F718
:1017500031977F01EA1AFB0AA70170E060E08C0F65
:101760009D1F0E942A08065F1F4FD60116966D9195
:101770007C91A701CE01800F911F0E946C150E0D68
:101780001F1DF601A085B185FD0101900020E9F73C
:1017900031977F01EA1AFB0AA70170E060E0CE01F1
:1017A000800F911F0E942A080C5F1F4FD6011896C8
:1017B0006D917C91A701CE01800F911F0E946C1545
:1017C000C701800F911FF601628543853485258509
:1017D000C80FD91F688349833A832B830496DF910E
:1017E000CF911F910F91FF90EF90DF90CF900895D0
:1017F0002F923F924F925F926F927F928F929F9221
:10180000AF92BF92CF92DF92EF92FF920F931F930E
:10181000CF93DF93CDB7DEB72E970FB6F894DEBF28
:101820000FBECDBF8C016B01DB018D909D90AD9003
:10183000BC90FC0182819381A481B58188159905B2
:10184000AA05BB0570F4B401660F771F660F771FFA
:10185000828593850E948B14D8011B969C938E934E
:101860001A97F80182829382A482B582C60140E071
:1018700050E0BA01A4E0EA2EF12C98012A5F3F4F14
:10188000DC011596EC91159716964C901697512CF5
:10189000712C612C3201552444245E2A1496EC915B
:1018A00014974E2A1796EC917E2AD7011701E4E08F
:1018B0002E0E311C71010496F80182809380A48061
:1018C000B580481559056A057B05A8F446825782FC
:1018D000608671861497A284B384AA0DBB1DE4E0D0
:1018E000BE2EF90101900D92BA94E1F74F5F5F4F60
:1018F0006F4F7F4FC5CF84859585A685B7858415A5
:101900009505A605B70570F4B201660F771F660F3F
:10191000771F848995890E948B14D80155969C93D2
:101920008E935497F8014486558666867786C6015D
:10193000820D931D412C512C32011C019801205F16
:101940003F4FDC0111966C91119712968C90129773
:10195000912CB12CA12C540199248824962A6C91A5
:10196000862A13966C91B62AB4E0EB0EF11CF801AE
:10197000448555856685778544165506660677063F
:10198000C0F4808A918AA28AB38ABC016219730961
:10199000A489B589A60FB71F64E0F90101900D92E3
:1019A0006A95E1F7BFEF4B1A5B0A6B0A7B0A049654
:1019B000C8CF86899789A08DB18D88159905AA050C
:1019C000BB0560F4B401660F771F848D958D0E946E
:1019D0008B14D8015D969C938E935C97F801868A50
:1019E000978AA08EB18E412C512C32011801FAE158
:1019F0002F0E311CF80186899789A08DB18D48166C
:101A000059066A067B0608F05CC0B6016E0D7F1DA4
:101A1000CE0101960E94F80697012C5F3F4F3E874A
:101A20002D8789809A80AB80BC80C901032E000C71
:101A3000AA0BBB0BAC01BD01480D591D6A1D7B1DD6
:101A400049875A876B877C87F901EC0DFD1D9F0143
:101A50002C193D09B90190E080E029853A854B8534
:101A60005C85621773078407950728F42191DF01CD
:101A700012972C93ECCFED84FE84E80CF91CF60150
:101A8000EE0DFF1D319710828D859E8501978C0D7F
:101A90009D1DD8015B969C938E935A97C201880F27
:101AA000991F5C96ED91FC91E80FF91FD1018D9182
:101AB0009C9191838083BFEF4B1A5B0A6B0A7B0A70
:101AC00099CFC7012E960FB6F894DEBF0FBECDBFDB
:101AD000DF91CF911F910F91FF90EF90DF90CF900A
:101AE000BF90AF909F908F907F906F905F904F903E
:101AF0003F902F9008952F923F924F925F926F9256
:101B00007F928F929F92AF92BF92CF92DF92EF928D
:101B1000FF920F931F93CF93DF93CDB7DEB7A697B6
:101B20000FB6F894DEBF0FBECDBF8C010E94DB055F
:101B30004B015C01980125573B4F3E8B2D8BF901E2
:101B400080819181A281B38175016401C81AD90A8B
:101B5000EA0AFB0AD701C601893F9A42A105B105ED
:101B600010F035971082180134E8231A3BEF330A3E
:101B7000D1018D919C91892B79F0F801E157FB4FB0
:101B800080819181A281B38188159905AA05BB0541
:101B900018F4F1011182108298012C573B4F3A8BB7
:101BA000298BA80140585B4F5C8B4B8BC801489632
:101BB000988F8F8BD801AA57BB4FBC8FAB8FF80182
:101BC000EC56FB4FFE8FED8F215F3F4F38A32F8FD9
:101BD00042505109588B4F8786599B4F9A8F898F56
:101BE0001996BAA3A9A3A50194012C5E3F4F4F4FAC
:101BF0005F4F2BA33CA34DA35EA3F8018489958975
:101C0000A689B789892B8A2B8B2BB9F5D801129617
:101C10008D919C91DC01ED91FC910284F385E02D86
:101C200019959C0197FF3DC0F801EA57FB4F808151
:101C3000882301F17801B9E7EB1ABBEFFB0AF70142
:101C400080819181A281B381A5019401281B390B68
:101C50004A0B5B0BDA01C901853C9940A105B1052E
:101C600048F0C8010E94C206D7018D929D92AD92A4
:101C7000BC92139790E080E0B6C10E94DB05681922
:101C800079098A099B09F801C488D588E688F7880C
:101C9000C616D706E806F90608F0B8CF8EEF9FEF14
:101CA000A2C1A989BA898D919C911197820F931F26
:101CB0008D939C93F1014081518147305105F9F496
:101CC000A98DBA8D8D919C911197AC014F5F5F4F9B
:101CD0004D935C93800F911FFC01208FAF85B889D5
:101CE0008D919C91119701978D939C93892B09F06D
:101CF00084CF88E090E0F101918380837ECF41150D
:101D0000510521F52F3F310581F481E090E0918369
:101D10008083CBA0DCA0EDA0FEA0A9A1BAA1CD92AA
:101D2000DD92ED92FC92139768CF0E94DB05681953
:101D300079098A099B09693873418105910508F47D
:101D40005CCFF801EA57FB4F1082A8CF4130510514
:101D500089F42E3F310519F482E090E0CCCF118256
:101D60001082EB8DFC8D8081811147CFC8010E94CC
:101D7000C20643CF4230510591F4AF85B8892D9307
:101D80003C93E98DFA8D1182108283E090E0D101BD
:101D90008D939C93E989FA89318320832ECF433038
:101DA000510571F4322F2227AF85B8898D919C910E
:101DB0001197280F391F2D933C9384E090E09BCF1F
:101DC0004430510579F460E071E00E94AA168F3F1B
:101DD000910529F485E090E0918380830ECF1182F4
:101DE00010820BCF4530510569F4AB89BC892D9326
:101DF0003C9386E090E091838083A989BA892D93F2
:101E00003C93FBCE46305105A1F4322F2227EB89BB
:101E1000FC8980819181280F391F3183208387E0DD
:101E200090E0D1018D939C93EF85F8898081918119
:101E30005DCF4830510509F0E0CE1182108260E09C
:101E400071E00E94AA168F3F910509F0D6CEAB89AA
:101E5000BC89ED91FC91309709F0DEC0C8010E9469
:101E6000C20686E292E09A8389831C821B8281EB00
:101E700093E09E838D8398878F839A8789871B86BB
:101E80001C861D861E866801B8EECB1ABBEFDB0AE6
:101E90007801E6EBEE1AEBEFFE0A412C22E0522E1F
:101EA000612C712CD601ED91FC913097A9F18481C0
:101EB00095819C838B83808191819E838D83828198
:101EC0009381DC01ED91FC910480F581E02D199561
:101ED00098878F83D601ED91FC9182819381DC01FB
:101EE000ED91FC910680F781E02D19959A878987FD
:101EF0004B865C866D867E86D601ED91FC91608571
:101F00007185D801ED91FC910190F081E02DAE0139
:101F10004F5F5F4FC8011995B2E0CB0ED11CEC1496
:101F2000FD0409F0BFCF412C92E0592E612C712C99
:101F3000F701A081B1811097E1F112968D919C91EA
:101F400013979C838B8314968D919C9115979E83F8
:101F50008D83ED91FC9111970480F581E02DCD01E9
:101F6000199598878F83D7018D919C91DC01ED9114
:101F7000FC910680F781E02D19959A8789874B8619
:101F80005C866D867E86D801ED91FC91C080D18003
:101F9000F70180819181DC01ED91FC910280F38158
:101FA000E02D1995AE014F5F5F4FBC01C801F601EE
:101FB0001995F2E0EF0EF11CE214F30409F0B8CF2A
:101FC000F801EA57FB4F81E080833196808291824D
:101FD000A282B382AD89BE898D929D92AD92BC9250
:101FE00013978FEF9FEFA6960FB6F894DEBF0FBE44
:101FF000CDBFDF91CF911F910F91FF90EF90DF90B8
:10200000CF90BF90AF909F908F907F906F905F9098
:102010004F903F902F900895EA30F10509F0A1C04C
:1020200082E392E09A8389831B821C821D821E8236
:102030001F82188619861A860E94DB05F801C08463
:10204000D184E284F3849B01AC012C193D094E0933
:102050005F0969017A016F89788DCE0101960E942E
:102060008F09C701B60128EE33E040E050E00E943E
:10207000BE1669017A019B01AC018B819C81AD8107
:10208000BE818C0D9D1DAE1DBF1D8B839C83AD83BA
:10209000BE8360E472E48FE090E00E949A16CF80E5
:1020A000D884E984FA84DC01CB018C0D9D1DAE1D22
:1020B000BF1D8F839887A987BA870E94DB05CF80D1
:1020C000D884E984FA8436E3D31A35E6E30A34EC9B
:1020D000F30A28EE33E040E050E00E94BE162901EA
:1020E0003A019B01AC0160E472E48FE090E00E9451
:1020F0009A16A7019601261B370B480B590BCA01EC
:10210000B9012B813C814D815E812150310941090A
:10211000510969017A01C418D508E608F7082601B3
:10212000370120E03AEC4AE95BE30E94BE16420E1A
:10213000531E641E751ED8011C964D925D926D92C1
:102140007C921F97F801608B718B828B938B0E941E
:10215000DB05AD89BE896D937D938D939C93139719
:102160004CCDE630F10559F46F89788D8D8D9E8DBB
:102170000E94F80B81E0EF8DF8A180833ECDEB301B
:10218000F10521F4AB8DBC8D1C9237CDEF53FE4F82
:10219000EE0FFF1FE00FF11F80819181009709F47E
:1021A0002CCDDC01ED91FC910190F081E02D6F8947
:1021B000788D199522CD1F920F920FB60F92112490
:1021C0000BB60F922F933F934F935F936F937F9331
:1021D0008F939F93AF93BF93EF93FF9385E994E021
:1021E0000E94AF04FF91EF91BF91AF919F918F91AA
:1021F0007F916F915F914F913F912F910F900BBE07
:102200000F900FBE0F901F9018951F920F920FB650
:102210000F9211240BB60F922F938F939F93EF93EE
:10222000FF93E091A504F091A6048081E091AB04B6
:10223000F091AC0482FD1DC090818091AE048F5F4F
:102240008F732091AF04821741F0E091AE04F0E06B
:10225000EB56FB4F958F8093AE04FF91EF919F91CA
:102260008F912F910F900BBE0F900FBE0F901F906C
:1022700018958081F2CF1F920F920FB60F92112402
:102280002F933F938F939F93AF93BF93809191042C
:1022900090919204A0919304B09194043091900491
:1022A00023E0230F2D3758F50196A11DB11D209372
:1022B00090048093910490939204A0939304B0931C
:1022C000940480918C0490918D04A0918E04B0911F
:1022D0008F040196A11DB11D80938C0490938D04F1
:1022E000A0938E04B0938F04BF91AF919F918F9173
:1022F0003F912F910F900FBE0F901F90189526E8D9
:10230000230F0296A11DB11DD2CFE5E9F4E013829F
:10231000128288EE93E0A0E0B0E084839583A683E8
:10232000B78384E892E09183808385EC90E0958781
:10233000848784EC90E09787868780EC90E0918B8F
:10234000808B81EC90E0938B828B82EC90E0958B7C
:10235000848B86EC90E0978B868B118E128E138E79
:10236000148E08950F931F93CF93DF93E2E3F5E06C
:10237000AAE7B2E0B183A08325E934E03383228366
:1023800040E051EE60E070E04483558366837783DC
:102390001086118612861386148615861686178671
:1023A000108A118A128A138A148A158A168A178A41
:1023B00080E092E0EAE4F5E0EF018C01199201502F
:1023C0001040E1F7EAE4F7E0EF018C0119920150C7
:1023D0001040E1F782E3EAE4F9E0EF01082F1992F7
:1023E0000A95E9F7ECE7F9E0EF0119928A95E9F728
:1023F0001092AF091092AE091092B1091092B00973
:102400001092B3091092B2091092B5091092B40952
:102410001092B7091092B6091092B8091092B90932
:102420001092BA091092BB091092BC091092BD0912
:102430001092BE091092BF091092C0091092C109F2
:102440001092C2091092C3091092C4091092C509D2
:102450008EE692E09093C7098093C6091092C8094E
:102460001092C9091092CA091092CB091092CC0996
:102470001092CD091092CE091092CF091092D10975
:102480001092D0091092D2091092D3091092D40957
:102490001092D5091092D6091092D7091092D80936
:1024A0001092D9091092DB091092DA091092DC0916
:1024B0001092DD091092DE091092DF091092E109F5
:1024C0001092E0091092E3091092E209E6EEF9E0B9
:1024D000C2E6D2E0D183C083C6E5D2E0D783C6830B
:1024E000CAE4D2E0D187C087128613861486158687
:1024F00016861786108A118A128A138A148A158AF8
:10250000C1EBD3E0D78BC68B108E118E128E138E3B
:10251000148E158E168E178EC4E7D3E0D1A3C0A3F8
:1025200013A212A2F5A3E4A3C1E0D0E0D7A3C6A3EF
:10253000CCEFD2E0D583C48310924E0A10924F0A9A
:102540001092500A1092510A1092520A1092530A95
:10255000B093550AA093540A3093570A2093560A11
:102560004093580A5093590A60935A0A70935B0A31
:1025700010925C0A10925D0A10925E0A10925F0A35
:102580001092600A1092610A1092620A1092630A15
:102590001092640A1092650A1092660A1092670AF5
:1025A0001092680A1092690A10926A0A10926B0AD5
:1025B00020E032E0EAE4F5E0ACE6BAE001900D920A
:1025C00021503040D9F720E032E0EAE4F7E0ACE611
:1025D000BCE001900D9221503040D9F722E3EAE4AB
:1025E000F9E0ACE6BEE001900D922A95E1F722E316
:1025F000ECE7F9E0AEE9BEE001900D922A95E1F733
:102600001092D10E1092D00E1092D30E1092D20EC4
:102610001092D50E1092D40E1092D70E1092D60EA4
:102620001092D90E1092D80E1092DA0E1092DB0E84
:102630001092DC0E1092DD0E1092DE0E1092DF0E64
:102640001092E00E1092E10E1092E20E1092E30E44
:102650001092E40E1092E50E1092E60E1092E70E24
:102660009093E90E8093E80E1092EA0E1092EB0E12
:102670001092EC0E1092ED0E1092EE0E1092EF0EE4
:102680001092F00E1092F10E1092F30E1092F20EC4
:102690001092F40E1092F50E1092F60E1092F70EA4
:1026A0001092F80E1092F90E1092FA0E1092FB0E84
:1026B0001092FD0E1092FC0E1092FE0E1092FF0E64
:1026C0001092000F1092010F1092030F1092020F40
:1026D0001092050F1092040F49E053E061E084E589
:1026E0009AE0DF91CF911F910F910C94EC050E941D
:1026F00085110C94B2110E947905C0913405D091D6
:102700003505C0903605D0903705E0903805F0903B
:10271000390560E079E08DE390E0A70196010E9421
:10272000BE162150310941095109569547953795F3
:102730002795E889F98982E08083C11441EED406A7
:10274000E104F10421F0211550E1350798F0E88902
:10275000F989108260E874E88EE190E0A7019601A3
:102760000E94BE16215031094109510956954795DD
:1027700037952795EC85FD853083EE85FF85208391
:10278000188EEC89FD8986E08083EA89FB89808147
:1027900080618083EA89FB89808188608083EA89FF
:1027A000FB89808180688083EA89FB8980818F7DB5
:1027B00080831092AF091092AE091092B109109265
:1027C000B0091092B5091092B4091092B309109291
:1027D000B209ECE7F9E090E080E021913191232B00
:1027E00009F057C0FC01EE0FFF1FE458F64F26EE2C
:1027F00039E0318320838C599F4F9093E90980936E
:10280000E80981E08093520A84E08093530A24E02F
:1028100043E062E080E00E940E0627E046E065E0CB
:1028200081E00E940E062AE049E068E082E00E9412
:102830000E062DE04CE06BE083E00E940E06EEE910
:10284000FEE090E080E021913191232B41F5FC01E5
:10285000EE0FFF1FE256F14F26EE39E03183208361
:102860008C599F4F9093E9098093E80906EE19E08F
:10287000D0E0C0E0005F1F4F8091530A8C171D0607
:10288000C9F0C0F060E0F801828D0E940802219634
:10289000F1CF01968931910509F09FCFB2CF019612
:1028A0008931910581F6E2CF82E395E00E947B0DAC
:1028B0000E9448050E94DB052091E4093091E5095A
:1028C000AB01421B530B4536510594F37093E50958
:1028D0006093E4098091DA0E8111E6CF06EE19E0EB
:1028E000D0E0C0E0005F1F4F8091530A8C171D0697
:1028F000D9F2D0F260E0F801828D0E9408022196A0
:10290000F1CF40E754E061E084E59AE00C94EC05F7
:10291000F8940C9416174F925F926F927F928F9259
:102920009F92AF92BF92CF92DF92EF92FF920F935E
:102930001F93CF93DF938C01009799F4CB01DF9124
:10294000CF911F910F91FF90EF90DF90CF90BF90AC
:10295000AF909F908F907F906F905F904F900C946E
:102960007515FC01E60FF71F9C0122503109E21793
:10297000F30708F4AEC0D901CD91DC911197C617C9
:10298000D70720F1C530D10578F0CE01049786171E
:10299000970750F0C61BD70B2297C193D1936D9325
:1029A0007C93CF010E941116C801DF91CF911F9136
:1029B0000F91FF90EF90DF90CF90BF90AF909F90DE
:1029C0008F907F906F905F904F9008955B01AC1A4D
:1029D000BD0A4C018C0E9D1EA091080FB091090FED
:1029E000512C412CF12CE12C109731F58091060FE0
:1029F0009091070F8815990509F05CC04616570697
:102A000008F058C08091000290910102009741F4B3
:102A10008DB79EB74091040250910502841B950B1F
:102A2000E817F90708F055C0F093070FE093060F79
:102A3000F90171836083B8CF8D919C9111971296A3
:102A40006C90129713967C901397A815B90559F5B9
:102A50006C0142E0C40ED11CCA14DB0420F1AC01AD
:102A60004A195B09DA011296159780F06282738227
:102A700051834083D9016D937C93E114F10471F08B
:102A8000D7011396FC93EE9312978ECF22968C0F5C
:102A90009D1FF90191838083F301EFCFF093090F1C
:102AA000E093080F81CF4816590608F42C017D01E8
:102AB000D3019ACFCB010E9475157C01009749F094
:102AC000AE01B8010E946C15C8010E941116870161
:102AD0006BCF10E000E068CFFB01DC0102C0019089
:102AE0000D9241505040D8F708950F931F93CF9304
:102AF000DF938230910510F482E090E0E091080FBE
:102B0000F091090F30E020E0B0E0A0E0309799F4B8
:102B10002115310509F44AC0281B390B2430310531
:102B2000D8F58A819B816115710589F1FB01938339
:102B30008283FE0111C040815181028113814817B7
:102B40005907E0F04817590799F4109761F0129669
:102B50000C93129713961C933296CF01DF91CF916D
:102B60001F910F9108950093080F1093090FF4CF50
:102B70002115310551F04217530738F0A901DB0147
:102B80009A01BD01DF01F801C1CFEF01F9CF9093A8
:102B9000090F8093080FCDCFFE01E20FF31F819341
:102BA00091932250310939832883D7CF2091060F82
:102BB0003091070F232B41F4209102023091030240
:102BC0003093070F2093060F2091000230910102ED
:102BD0002115310541F42DB73EB7409104025091C3
:102BE0000502241B350BE091060FF091070FE21749
:102BF000F307A0F42E1B3F0B2817390778F0AC0120
:102C00004E5F5F4F2417350748F04E0F5F1F5093FC
:102C1000070F4093060F819391939FCFF0E0E0E080
:102C20009CCFCF93DF930097E9F0FC01329713829A
:102C30001282A091080FB091090FED0130E020E061
:102C40001097A1F420813181820F931F2091060FEC
:102C50003091070F2817390709F061C0F093070F6B
:102C6000E093060FDF91CF910895EA01CE17DF07B9
:102C7000E8F54A815B819E0141155105B1F7E901F3
:102C8000FB83EA8349915991C40FD51FEC17FD07C7
:102C900061F4808191810296840F951FE9019983E7
:102CA0008883828193819B838A83F0E0E0E012969F
:102CB0008D919C9113970097B9F52D913C911197A7
:102CC000CD010296820F931F2091060F3091070FBE
:102CD0002817390739F6309751F51092090F1092DD
:102CE000080FB093070FA093060FBCCFD383C28306
:102CF00040815181840F951FC817D90761F44E5F39
:102D00005F4F88819981480F591F518340838A8181
:102D10009B81938382832115310509F0B0CFF09315
:102D2000090FE093080F9ECFFD01DC01C0CF138295
:102D30001282D7CFDB018F939F930E94E816BF9139
:102D4000AF91A29F800D911DA39F900DB29F900DFA
:102D50001124089597FB072E16F4009407D077FDF1
:102D600009D00E94F31607FC05D03EF4909581959A
:102D70009F4F0895709561957F4F0895A1E21A2E97
:102D8000AA1BBB1BFD010DC0AA1FBB1FEE1FFF1F0F
:102D9000A217B307E407F50720F0A21BB30BE40B5F
:102DA000F50B661F771F881F991F1A9469F76095A6
:102DB0007095809590959B01AC01BD01CF01089560
:102DC000EE0FFF1F881F8BBF0790F691E02D19941F
:102DD0000E940717A59F900DB49F900DA49F800D92
:102DE000911D11240895AA1BBB1B51E107C0AA1F06
:102DF000BB1FA617B70710F0A61BB70B881F991F9C
:102E00005A95A9F780959095BC01CD010895A29F90
:102E1000B001B39FC001A39F700D811D1124911DAE
:102E2000B29F700D811D1124911D089511E0C8E815
:102E3000D1E000E006C0802FFE010E94E01621963E
:102E4000011DC938D10780E00807A9F7F894FFCF22
:102E500000000A0F8000726F7373657269616C5FA6
:102E60006D7367732F52657175657374506172610C
:102E70006D0000000000710B980895089208000092
:102E80000000D5098F098C09890900000000410B59
:102E90003C083908360800000000F90929076F04CA
:102EA0006C04000000003C0AE2076D036A030000A6
:102EB0000000040870036D036A03000000005E0A4E
:102EC000F80B330830080000000056067B0DE705BC
:102ED00000000000D104DB0172041E05A30481047C
:102EE0009504333561353662623265386537336350
:102EF0006638313061663430396364343037326279
:102F0000363900776865656C5F746F6B796F5F77D2
:102F100065696C692F6D6F746F720032313736647A
:102F20006563616563626365373861626333623923
:102F30003665663034396661626564007374645F57
:102F40006D7367732F486561646572002F776865DC
:102F5000656C2F6D6F746F72004D6F746F72436F7D
:102F60006E74726F6C6C657220436F6E73747275E1
:102F7000637465640053657474696E67206D6F7463
:102F80006F72206472697665722070696E00496E96
:102F9000697469616C697A696E67206D6F746F72AC
:102FA000206472697665722076616C756500496E81
:102FB000697469616C697A696E67206D6F746F728C
:102FC0002070696E6D6F6465004D65737361676530
:102FD0002066726F6D206465766963652064726F28
:102FE000707065643A206D657373616765206C610C
:102FF00072676572207468616E20627566666572BC
:103000002E003966306539386264613635393831B9
:1030100039383664646635336166613761343065EA
:1030200034390031316162643733316332353933D9
:103030003332363163643631383362643132643668
:1030400032393500726F7373657269616C5F6D73CD
:1030500067732F4C6F6700306164353166383866AE
:103060006334343839326638633130363834303787
:103070003736343630303500726F7373657269617C
:103080006C5F6D7367732F546F706963496E666F01
:103090000063643731363663373463353532633332
:1030A0003131666263633266653561376263323837
:1030B00039007374645F6D7367732F54696D6500B5
:1030C0004D6F746F72436F6E74726F6C6C657220AB
:0C30D000446573747275637465640000DD
:00000001FF
