:1020000000800020A13300008933000089330000E4
:1020100000000000000000000000000000000000C0
:1020200000000000000000000000000089330000F4
:10203000000000000000000089330000F5330000BC
:1020400089330000893300008933000089330000A0
:10205000B930000089330000893300008D3300005F
:10206000893300008933000089330000BD2E000051
:10207000AD2E0000893300009D2E00008933000042
:102080008933000089330000893300008933000060
:10209000000000008933000089330000893300000C
:1020A0008933000089330000893300008933000040
:1020B0000000000010B5064C2378002B07D1054B1B
:1020C000002B02D0044800E000BF0123237010BDA4
:1020D0009800002000000000D05D0000044B10B507
:1020E000002B03D00349044800E000BF10BDC046E8
:1020F000000000009C000020D05D000043680B70D1
:1021000043681B0A4B7043681B0C8B7043681B0EA3
:10211000CB7083680B7183681B0A4B7183681B0C3F
:102120008B71836808201B0ECB7170470A78426060
:102130004B781B021A4342608B781B0413434360A5
:10214000CA781206134343600A7982604B791B02F6
:102150001A4382608B791B0413438360CA79120689
:102160001343836008207047004870478859000077
:10217000004870476759000000487047BE5800008B
:10218000004870479D580000004870478A5800007A
:10219000004870476958000000487047D758000051
:1021A000004870474858000000487047B759000081
:1021B00000487047965900000048704714590000C5
:1021C00000487047F35800009F23DB00C05C704755
:1021D00007B5032001F006F8431E98416B46C0B2D4
:1021E000D871DA79044B002A03D01A6801321A60D8
:1021F00007BD1A68013AFAE72006002007B50A2051
:1022000000F0F0FF431E98416B46C0B2D871DA79F6
:10221000044B002A03D05A6801325A6007BD5A683D
:10222000013AFAE72006002007B50D2000F0DAFF9A
:10223000431E98416B46C0B2D871DA79044B002A2C
:1022400003D09A6801329A6007BD9A68013AFAE7AA
:102250002006002007B5132000F0C4FF431E98415C
:102260006B46C0B2D871DA79044B002A03D0DA6821
:102270000132DA6007BDDA68013AFAE72006002089
:10228000F0B5040085B00E00632905DD9F2300250D
:10229000DB00C35CAB424DD0136828491B68611852
:1022A000100098478723264A9B00E252254AC3B272
:1022B000A35425490212D2B262549B188822DB43F0
:1022C0009200A354214B0522E654214B36B236121C
:1022D000E6540023851D954206DB872189005118AD
:1022E000615C01325B18F6E7DB43144A05002018F5
:1022F00080180370802308359B009D420CDC1C3342
:10230000E7183E00F31B9D4214DD606831780368D6
:1023100001361B689847F5E70E4B01AA019303238A
:1023200013710D4B07219360236820001B68012562
:1023300098476D42280005B0F0BDC046230200005A
:10234000FFFEFFFF1E0200001F020000210200002E
:1023500022020000DC5700002E590000962110B523
:102360002B4C89016068A1600368DB6998470023F2
:10237000284AA3500432A3500832A350264AA3503F
:1023800026499A005218A258002A3DD1DA1DFF3280
:1023900023499200A2187D3351608B60CC600021EC
:1023A000022000F0A7FE0021032000F0A3FE002180
:1023B000092000F09FFE00210A2000F09BFE002172
:1023C0000B2000F097FE00210D2000F093FE00216D
:1023D0000F2000F08FFE0021132000F08BFE04225E
:1023E0001049022000F0D0FD04220F49092000F01E
:1023F000CBFD04220D490B2000F0C6FD04220C4940
:102400000F2000F0C1FD10BD0133192BB8D1C6E774
:10241000DC000020E4040000EC0400001C040000C8
:1024200034060020D1210000FD21000029220000F7
:10243000552200000B0A017043700B0C090E8370CB
:10244000C1707047436870B50B70436805001B0A84
:102450004B7043680C001B0C8B7043681B0ECB70D9
:1024600083680B7183681B0A4B7183681B0C8B712B
:1024700083681B0ECB71C3680B72C3681B0A4B7257
:10248000C3681B0C8B72C3681B0ECB72006903F010
:1024900037F90600200031000C30FFF7CBFF200099
:1024A00029693200103003F055F83000103070BD4B
:1024B00070B5050004300C00FFF7C4FF002322189C
:1024C000E918097ED1540133042BF9D12A00011DEA
:1024D0001C326118283508CA1C0A0B704C701C0C81
:1024E0001B0E8C70CB7004319542F4D1103070BD4E
:1024F0004368F7B50B7043680E001B0A4B704368C6
:1025000004001B0C8B7043681B0ECB700B1D00214D
:10251000DA1C944662688D1C5F1C981CAD008A42D0
:102520000DD9E26801315519083D2A68100A1A7060
:102530005870100C120E9870DA700433E8E72269B4
:1025400000211A70624623691B0A3B7023691B0C29
:10255000037023691B0E13707319DA1C94462269E9
:102560005F1C981C04358A420CD9A0698A00125855
:102570000131100A1A705870100C120E9870DA702F
:102580000433EAE7E2691A70E36962461B0A3B70AA
:102590000027E3691B0C0370E3691B0E1370E369EA
:1025A000BB4215D9636ABA00985803F0A9F80190A4
:1025B00001997019FFF73EFF636ABA000435995814
:1025C0007019019A02F0C6FF019B0137ED18E6E78A
:1025D0002800FEBD70B5037906000B7080680D0001
:1025E00003F08EF80400681C2100FFF723FF681D2C
:1025F000B168220002F0AEFF601D70BDF8B583889F
:1026000006000B7083880D001B0A4B70806803F076
:1026100077F80400A81C2100FFF70CFF2200B16826
:10262000A81D02F097FFF06803F06AF80700A31DE9
:10263000E81839000A34FFF7FDFE3A00F16828195E
:1026400002F088FF306903F05BF8E41907002819ED
:1026500039000434FFF7EEFE3A002819316902F020
:1026600079FF7369E4192B551A0A2D196A701A0C2F
:102670001B0EAA70EB70201DF8BD002310B503607F
:10268000CA5CDC00A2400468013322430260042BD0
:10269000F6D110BDF7B50C000B78050003710131C0
:1026A00001A8FFF7EAFF221D13000199481D01331D
:1026B0001E1BB04203D91F785E1E3770F7E7002358
:1026C00064182371AA60FEBDF0B50C000B7885B0CC
:1026D00083804A780600120213438380023101A8E6
:1026E000FFF7CBFF611D0B00019A951D0133181BED
:1026F000854203D91F78581E0770F7E70023A218F8
:10270000537102A8B1606119FFF7B7FF029A2B1D40
:102710009D181A00954204D9A05C511E60540132E4
:10272000F8E700206119013BE3184A1E1070F360BE
:1027300003A8FFF7A2FF039B0435E8182B0098427B
:1027400004D9E15C5A1EA1540133F8E70021221894
:10275000013D531E651919703561537891781B023C
:102760000904D2780B43215C12060B431343043057
:10277000736105B0F0BDF0B54B780D781B022B43AB
:102780008D7887B02D042B43CD7804002D061D4392
:1027900043680E00AB4204D2A900C06802F094FF67
:1027A000E06000236560371D0193BA787B781204DE
:1027B0001B0213433A781343FA7804371206134383
:1027C0000293019B019A981C830003931D00636888
:1027D00093420DD928002100029B0838A360E368CA
:1027E00004221818083102F0B5FE019B0133DBE723
:1027F0002369029A934204D29100A06902F064FF17
:10280000A061029B2361039BF71800230193BA7810
:102810007B7812041B0213433A7804351343FA7889
:102820000437120613430293019A236993420CD989
:102830002100029B90006361A369042218181431DF
:1028400002F088FE019B0133E0E7E369029A9342BC
:1028500004D29100606A02F037FF60620027029B99
:10286000E361E369BB421FD9711905A8FFF705FFB2
:10287000059A2B1D9D181A00954204D9B05C511E73
:1028800070540132F8E700217219013A11702100E9
:10289000013BF3182362636AB80018180422203140
:1028A00002F058FE0137DCE7280007B0F0BDF7B5AD
:1028B0000A780C0042604B7805001B021A43426004
:1028C0008B781B0413434360CA781206134343609A
:1028D0000A7982604B791B021A4382608B791B0450
:1028E00013438360CA791206134383600A7AC26075
:1028F0004B7A1B021A43C2608B7A1B041343C360DA
:10290000CA7A0C3112061343C36001A8FFF7B5FE63
:10291000220001990F3208001300103001331E1BF2
:10292000B04203D91F785E1E3770F7E700236418A2
:10293000E3732A61FEBD70B5040004300D00FFF79B
:10294000B6FF00232E18F15CE21801331176042B38
:10295000F9D12200011D69181C3228344B788D787A
:102960001B022D042B430D782B43CD7804312D060B
:102970002B4308C29442F1D1103070BD1FB5074BF4
:1029800001AA019300230293039303680A211B68A1
:102990000400984700F09EFCE0601FBDAC570000AB
:1029A0000022F0B5802705002B4B89B0029302ABC3
:1029B0009A802A4B0792049305930693284BBF00F5
:1029C000C4186433C6182368002B17D09A68586857
:1029D00002A98A801A68036804929B689847236852
:1029E000059058680368DB68984721682B68069053
:1029F00007971B6802AA0969280098470434B44263
:102A0000E1D18026174BB600EB180193206800280F
:102A100018D0436802AA93808368049303689B6874
:102A20009847059020680368DB6898472B680690F4
:102A300020681F68036807965B68984702AA010030
:102A40002800B847019B0434A342DFD19F23012211
:102A5000DB00EA5409B0F0BDC4570000665900001D
:102A60001C040000E4040000F0B5244B87B003937D
:102A7000002304000E000493059300F02BFCE36890
:102A80003100C51A03A8FFF751FBFA21280089007D
:102A900002F09CFCFA21049B89001818049028007D
:102AA000019302F019FD164E059B7143C91801935D
:102AB000059100F00FFCFA21049B890007000193A7
:102AC0005D1E02F083FCFA212D1A0E4B2561059D37
:102AD00038008900ED1802F0FFFC20004E43210071
:102AE000AE1B14316661103002F04AFA00F0F2FBBE
:102AF000A023DB00E05007B0F0BDC046AC5700009B
:102B000040420F0000CA9A3BF8B5040000F0E2FB17
:102B1000A023DB00E358774A0700C31A934203D986
:102B20009F230022DB00E254734D6359002B05D034
:102B3000724BE358BB4201D200236351A369002BBF
:102B400017D1606803685B699847002819DA9F23EA
:102B50000025DB00E35CAB4209D0694E694AA3590A
:102B6000FB1A934203D92000FFF708FFA751280062
:102B7000F8BD00F0AFFBA369C01B9842E1D9022564
:102B80008FE0614AA358C318A3506659072E0DD190
:102B9000043AA358591CE318A1501877083AA358CF
:102BA000013BA350002BC9D10823C6E7002E12D148
:102BB000FF2806D1012363513B00504A1433A35030
:102BC000BCE700F087FB514BC01B9842B6D99F234E
:102BD000DB00E654D3E7012E0ED1FE2801D10223FB
:102BE000ABE7002363519F23DB00E35C002BA5D1FF
:102BF0002000FFF7C3FEA1E7022E09D19D2300218B
:102C0000DB00E0500833E15003236351A05095E707
:102C1000032E07D19D23DB00E25800021018E0507C
:102C200004238AE7042E0BD1394A134003D5394ACD
:102C3000013B13430133FF2B00D07DE7FA3B7CE7D8
:102C4000052E03D1344BE0500623DEE7062E0AD1D1
:102C5000314B0002E2581018E050072363519D23C6
:102C6000DB00E3589EE7082E00D067E700226251A0
:102C7000274A134003D5274A013B13430133FF2B57
:102C800000D05BE7244BE358002B0CD1012520003A
:102C9000FFF774FE2000FFF783FE194BE750043363
:102CA000E7506D4263E70A2B05D1210020001C315B
:102CB000FFF7DAFE42E7062B0AD12100174B1C3141
:102CC000E018FFF758FD0123A122D200A35435E7F5
:102CD0000B2B02D100239F22F7E7BC339B0018592E
:102CE000002800D12AE7210003681C311B6898479F
:102CF00024E7C046F82A0000E404000004050000B0
:102D0000FC040000C4090000F40400008813000063
:102D1000FF00008000FFFFFFEC0400000C05000036
:102D200010B500F0D7FA124A124913680968C31A9D
:102D30008B421CDD104B10601968104A11605968F5
:102D4000516099689160D968D16019680C4A117610
:102D5000596851769968DB689176D376094BD868C3
:102D600001680C689968A0470748FFF7CDFE10BDC1
:102D70003006002000000020200600201006002061
:102D8000B400002034060020DC0000202C4B2D4A2B
:102D900010B51A602C4A9F215A60E12212029A60F3
:102DA0000022C9005A5429482949585010001C31A2
:102DB0005A5008315A50274951185918043208609E
:102DC000642AF8D1002210009021C9005118591826
:102DD00004320860642AF7D100228021140089009F
:102DE0009818013204778A42FAD1002180240A001F
:102DF000A400872080000818181801310270A14231
:102E0000F7D1A221C9005A5008315A5012499A618B
:102E10005A50124912485A50124B13499A6019607D
:102E20001249DA60596012491A61596111499A616F
:102E3000DA611A625A6208604B600A6110BDC046CE
:102E4000DC0000203C58000048060020F457000039
:102E50000C0500001C0400001C05000024050000F7
:102E600025590000B4000020245800000C58000030
:102E7000665900003406002010B501211A2000F028
:102E800039F901211A2000F081F901211B2000F0FD
:102E900031F900211B2000F079F910BD10B502486E
:102EA00000F0FFFD10BDC0464806002010B50248E6
:102EB00000F0F7FD10BDC0468C08002010B5024898
:102EC00000F0EFFD10BDC046D00A0020F0B51F494C
:102ED00085B01F4800F0EAFA1E491F4800F0E6FAE4
:102EE0001E4D1F49280000F0E1FA1E4E1E49300019
:102EF00000F0DCFA1D491E4800F0D8FA1D4F1E49AB
:102F0000380000F0D3FA0124032339000093019420
:102F100023000022194800F03DFD002331000193F9
:102F200000941D331E22164800F034FD192303932C
:102F3000013B0293163B019300941433172229009E
:102F4000104800F0E3FC05B0F0BDC04600080042A8
:102F5000140D0020000C00421C0D0020240D002048
:102F6000001000422C0D0020001400420018004206
:102F7000340D00203C0D0020001C004248060020BB
:102F80008C080020D00A0020F7B5019218221624E0
:102F900042433F4B07009B181C570091631C6ED0A7
:102FA000102C6CD03B4B3C4E1D68002D27D12900C6
:102FB00044223A4802F0D7FA29004422384802F065
:102FC000D2FA1022374B38491D60CA67C021C12090
:102FD000364B49005A5080001958FF35A943195003
:102FE0001A60334B334A5A800223327813433370CA
:102FF0007378DB09012BFBD00122264B1A600125D7
:10300000A540736900212B437361380000F002F979
:10301000009B002B31D00027224B20499C461B6887
:10302000BA00BB421DD16046013303608D501C4B7A
:1030300000999950072C19DD0123083CA4000721B1
:10304000A140154A9B009B189A698A439A61019A8C
:10305000042A12D81000996902F0AEF90B12141666
:1030600018008858A842E1D00137D9E7A40000230E
:10307000E5E70522A2400A439A61ADB2F560F7BDCB
:103080000422F7E70322F5E70222F3E70122F1E742
:10309000C8590000CC0D002000180040880D002009
:1030A000440D0020D00D002004E100E000E100E02C
:1030B000000C004005400000F8B50024094B1B68D7
:1030C000A34200D8F8BD084E084FA5003369EA595D
:1030D0001A4204D0064BEB589847EB593361013440
:1030E000ECE7C046D00D002000180040880D0020FD
:1030F000440D0020182330B51D000400454308206E
:10310000204A55192856013014D0032912D8080036
:103110006343D156D31802F04FF902280E1B5868AA
:10312000CB010221184A9B181A1840321170012253
:1031300082405A6030BD5868CB010621124A9B1864
:103140001A1840321170012282405A609A61F1E7E8
:103150005868CB0106210C4A9B181A18403211708E
:10316000012282405A605A61E4E75868CB0102218B
:10317000054A9B181A1840321170012282409A6049
:10318000D8E7C046C8590000004400411823F0B5F4
:1031900008245843114A13181C5701341BD0012628
:1031A00035005F688356BD400D4ADB019A18906870
:1031B00005420BD10C00601E8441D21940321078B8
:1031C00034400336A400B04320431070044A9B18D7
:1031D000002901D15D61F0BD9D61FCE7C859000087
:1031E00000440041182310B5082443430749002038
:1031F000CA181457013408D05B560549DB015B1827
:10320000186A5368D8400123184010BDC8590000FF
:103210000044004118224243F8B52C4E0300B21876
:10322000127A52B2140001320ED0481C00240C282D
:103230000AD802F0C1F80720202020202020200BEF
:103240000B0B0B00012464422000F8BD092905D1B5
:103250000021D8B2FFF74EFF0024F5E70A2902D17A
:10326000D8B20839F6E700240B29EDD1D8B20A39D3
:10327000FFF740FFE8E718204343F2185568F3567C
:103280002C00134ADB016E0817389B18C9B20440A2
:103290009E19002C0DD00F243036327809012240BF
:1032A0001143C9B25B19317040331A78104318705A
:1032B000D2E732000F27303216785B19BE43314314
:1032C000117040331A7810431870BDE7C8590000D8
:1032D00000440041014B18687047C046D40D0020DF
:1032E000F7B51348012284461249134C8E6863686F
:1032F00005689B0E1340019288686268019F920ED8
:103300003A4067463F6893420ED1BD420CD1864297
:103310000AD35B19FA254868AD00861B07486B4342
:103320007043000DC018FEBD3D0013000600E3E72A
:10333000D40D002010E000E000ED00E05555000045
:1033400070B5041E10D0FFF7CBFF050001F0A4FEFE
:10335000FFF7C6FF054B401B9842F7D9FA23013C03
:103360009B00ED18002CF3D170BDC046E7030000B0
:103370007047000010B5034A13680133136000F072
:1033800059F810BDD40D0020FEE70000034B10B526
:103390001B68002B00D0984710BDC046D80D0020F8
:1033A00070B50F490F4CA14204D101F0ABFE00F003
:1033B00097F9FEE70C4D00238D42F6D0CA18E818A5
:1033C000A24205D3094B8242EFD00949002204E012
:1033D000006804331060F1E704C38B42FCD3E4E7D8
:1033E0000000002098000020D45D0000980000201C
:1033F0001414002010B501F050FE002801D1FFF791
:10340000B9FF10BD014B18607047C046D80D0020B1
:1034100010B50400FFF7ACFF014B1C6010BDC046A7
:10342000040000200122024B52421A607047C0463D
:1034300004000020164A10B51368591C26D0013B21
:103440001360002B22D172B6124B134A04339342FD
:1034500013D9124A01211000147D0C42FCD0202106
:10346000148BFF319B085B0021431183D3610C4B0C
:1034700013800123027D1A42FCD0BFF34F8F094B0A
:10348000094ADA60BFF34F8FC046FDE710BDC04662
:103490000400002000200000030200000040004162
:1034A00002A5FFFF00ED00E00400FA050023037110
:1034B000016070479446F0B59E1E721E96416246AA
:1034C000056892072F6836063A4332432A6007257B
:1034D00005AC24780068A4012940214342680024F7
:1034E000022B00D05C03114321434160F0BD30B595
:1034F000C0250368AD031C6812052A402243C0247E
:103500000904A40221401143196003685A68144356
:103510005C6030BD0123026811680B4313600368CF
:103520001A68D207FCD4DA69D207F9D470470223AB
:10353000026811680B4313600268D3699B07FCD4CF
:1035400070470268137E9B0702D40379002BF9D1E0
:10355000002303717047002203685A837047036891
:10356000187E4007C00F70470368187EC009704777
:10357000802302685B42117E0B4313767047036819
:10358000588B8007C00F704702230268518B0B4392
:10359000538370470368187EC007C00F70470368E5
:1035A000188DC0B2704703681A7ED207FCD589B265
:1035B00019850123037118007047012203689A7569
:1035C0007047012203681A75704700000368214A9A
:1035D00030B593422FD0204A93422FD01F4A9342B6
:1035E0002FD01F4A93422FD01E4A93422FD01E4AFB
:1035F00093421FD119220E230121032599401B4814
:10360000C024016099082B40AB40FC359D408900E7
:103610000918A4000859A843C0259D402B00034366
:103620000B518023DB011A43114B5A805A7852B256
:10363000002AFBDB30BD14220923DDE715220A2313
:10364000DAE716220B23D7E717220C23D4E7182238
:103650000D23D1E700080042000C00420010004298
:103660000014004200180042001C004200E100E08B
:10367000000C0040F8B504000F0016001D00FFF715
:10368000A5FF2000FFF746FF1C21BB000B40710780
:103690002268090C0B431360842322689375012F61
:1036A0001AD11021012E00D008390C4B694318683B
:1036B000C00001F08BFE0722216802408B89520373
:1036C000DB04DB0C13438B81226803049089DB0C41
:1036D000400B400318439081F8BDC04618000020FD
:1036E00010B501F061FC01F0FDFEFFF7C5FB012004
:1036F000FFF726FE084C200001F0A4F9200000F09E
:10370000E7FBFEF72BFEFFF70BFB044B002BFAD079
:1037100000E000BFF7E7C046040E002000000000F4
:103720000120704710B50368014A1B6A984710BD15
:1037300013040000FC30006A704787239B00C01808
:10374000C36880204000C01A70470300FC331A6A27
:10375000002A03D0DB69C018007D70470120404279
:10376000FBE710B504000069FFF7D4FE2200002338
:10377000FC329361D361136287229200A4186360C4
:10378000A360E36010BD872310B59B00C218D36807
:10379000002BFCD10069FFF7D4FE10BD0368002B9D
:1037A00002D162B6BFF36F8F7047F020014030390D
:1037B000484248417047F0231B01194080230620EE
:1037C0009B0099420AD00133FF330130994205D062
:1037D000802302385B00994200D0002070470F2000
:1037E00001400020012903D00239481E8141481CB4
:1037F000704700008B23F0B5182685B002919B001E
:103800000400C05C330008214343324D1700EB181D
:103810005956FFF7FFFC304B0821E05C330043436F
:10382000EB185956FFF7F6FC2C4BE25C0393022A87
:1038300009D11133E05CFF2805D008214643AE19B9
:103840007156FFF7E7FC8C26B600A05DFF2819D063
:103850000121FFF74FFC1822A35D21495A43AB56C3
:10386000AD18DB0158188D21890060501D490122D7
:103870005B188E218900635069688A408F21890016
:1038800062501A600122029B11002069FFF7F2FECC
:1038900039002000FFF78FFF390005002000FFF7F7
:1038A0009EFF390006002000FFF77FFF33000090E5
:1038B000290020690122FFF7FDFD0B4B2069E25C26
:1038C000039BE15CFFF713FE2069FFF730FE05B0B4
:1038D000F0BDC046C85900002D0200002F020000B4
:1038E00018440041144400412E020000802210B50B
:1038F00004005200002101F036FE23000022FC33B8
:103900005A6020009A60DA6010BD0000F0B585B002
:103910001D000AAB1B78040000930BAB1B7816004C
:1039200001930CAB1B780F0002930DAB1B78039334
:1039300000234360FA239B008360124B083303602B
:103940001430FFF7D3FF20002130FF30FFF7CEFF08
:103950008B236A469B002761E6540B4B1278E55493
:103960000A4B2000E2546A46094B1279E2546A4637
:10397000127A0133E2546A46127B1033E25405B0E6
:10398000F0BDC046E05C00002D0200002E020000E9
:103990002F020000F7B51D0008AB1B780400009350
:1039A00009AB1B781600019300234360FA239B00A8
:1039B0008360114B0F00083303601430FFF796FF4C
:1039C00020002130FF30FFF791FF8B236A469B00D8
:1039D0002761E654094B1278E554094B2000E25464
:1039E0006A46084B1279E2548C22313BFF3B92002D
:1039F000A3541032A354FEBDE05C00002D02000071
:103A00002E0200002F020000F7B5EFF310830093A1
:103A10000123019372B680260200FF25019BFC3230
:103A20007600013B5C1C0FD0D4685F1EB44209D005
:103A300054680155546801342C405460D4680134F2
:103A4000D460EEE73B00EDE768460193FFF7A6FE82
:103A5000F7BD13B5EFF3108300930123019372B602
:103A6000019B5A1E0192002B15D00300FC33DA682B
:103A7000002A0DD09A68845C9A680132D2B29A60AA
:103A8000DA68013ADA606846FFF788FE200016BD62
:103A900001246442F7E701246846FFF77FFE644291
:103AA000F4E710B504000069FFF769FD002805D0B0
:103AB0002069FFF774FD2069FFF766FD2069FFF7B5
:103AC0004EFD00281BD02069FFF769FD0100200092
:103AD0001430FFF799FF8C239B00E35CFF2B0ED083
:103AE0002300FC331A6A80235B009B1A092B06DC37
:103AF0008D238F229B009200E358A2581A60206900
:103B0000FFF748FD00280ED087239B00E318DB68F1
:103B1000002B14D020002130FF30FFF79AFFC1B2F4
:103B20002069FFF740FD2069FFF71EFD002805D042
:103B30002069FFF71DFD2069FFF70DFD10BD20690D
:103B4000FFF73FFDEFE70000F8B5040000690D0046
:103B5000FFF720FD87239B00E618002802D0F368BA
:103B6000002B34D001278022F3685200934223D1E6
:103B7000EFF310833B4210D1174B5B68DB05DB0D85
:103B8000F1D0103B5BB2002B10DAF13A1340083B46
:103B90009B08124A9B009B181B682069FFF7FAFCE0
:103BA0000028E0D02000FFF77CFFDCE79B08C03353
:103BB0000B4A9B009B58F0E720002130FF30290082
:103BC000FFF722FF2069FFF7F8FC0120F8BD29006C
:103BD0002069FFF7E8FCF8E700ED00E01CED00E0ED
:103BE00000E100E010B504001430FFF732FF8C2331
:103BF0009B00E35CFF2B0ED02300FC331A6A80236A
:103C00005B009B1A0A2B06DD8E238F229B009200FD
:103C1000E358A2581A6010BDF7B506000D000C005D
:103C20008B180193019B671B9C4207D03368217856
:103C30001B683000984701340028F3D13800FEBDDE
:103C4000704710B50400F82101F0B2FB200010BD50
:103C5000F0B5822919D1C3B2294D5A01AA18916928
:103C6000284C80010C40C0218905214391612649DF
:103C7000083340187021506128685B011A5C8A4340
:103C8000110030220A431A54F0BD0029FCD1C0268D
:103C9000C1B21B4C4B01E3189A681A4DB6052A4075
:103CA00032439A60194A800182185A600A00072735
:103CB000246808325201115DB9430F0001213943D4
:103CC00011559F6910493D4040182E439E6158612F
:103CD0007020115D8143080010210143115599683E
:103CE0000B48A21808408021490301439960996854
:103CF000890B89039960402311790B431371C3E742
:103D0000BC120020FFFFFF8F300E0020F00F0020BC
:103D1000FF3F00F0EFF3108303600123436072B6AE
:103D2000704773B5836D0400002B1BD10600A836C5
:103D300035786846FFF7EEFF019BEDB2013B02D3F9
:103D40003578EDB2FAE768460193FFF727FD002DBD
:103D500001D1002076BD2300A4331868A034236865
:103D6000C01AF7E76846FFF7D5FF22000025019B40
:103D7000F432013B02D31578EDB2FAE768460193BD
:103D8000FFF70CFD002DE4D02300F0331868EC346D
:103D9000E5E7000010B5436D4468DBB25A01A21894
:103DA0009168094808330840802149030143916024
:103DB00091685B01890B890391602268D3184022C6
:103DC00019790A431A7110BDFF3F00F0F7B5436D32
:103DD0004268DBB21900040008311068490141183B
:103DE000C979C90711D55B01D21893689B049B0C54
:103DF0000CD12000FFF7CEFF63681A68636DDBB259
:103E000008335B01D3187F22DA71F7BDE16D002919
:103E100023D12100A4310B6023000125AC33E565DB
:103E200068465360FFF776FF260020002100019BC3
:103E3000A836013BF430F5315A1C33D03570027886
:103E40005F1ED2B20A700A78002A04D120000193C2
:103E5000FFF7A0FFE8E73B00EEE72100F0310B6041
:103E60000023E3652300603353606846FFF752FF89
:103E70000125260020002100019BF436013BA830DB
:103E8000F5315A1C0ED0357002785F1ED2B20A701E
:103E90000A78002A04D120000193FFF77BFFE8E7AE
:103EA0003B00EEE768460193FFF778FCA4E737B5DF
:103EB0006B46DC1D00230D00237001F067FA210022
:103EC00001F0F2F92B681818286020783EBD000038
:103ED0000078002810D00121084B1B681A898A43FA
:103EE0001A810822198B0A431A830422198B0A4368
:103EF0001A830022024B1A607047C046BC12002091
:103F0000B412002010B50F4A93699B0B9B03936179
:103F100013680222FF331A729879823A02439A7127
:103F20001A7A9207FCD57F24074A2140937A080029
:103F3000A3431900802301439172917A5B420B43A2
:103F4000937210BDBC1200200050004110B50C004F
:103F500001F01CFA210001F0DAF9002804D1034A2B
:103F600093699B0B9B03936110BDC046BC1200205C
:103F7000F8B50D00832A19D1CBB23B4C5A01A218D7
:103F800091693A48AD010840C0218905014391611A
:103F9000374920686D187021083355615B011A5C40
:103FA0008A43110040220A431A54F8BD022A55D10F
:103FB000304A8B009858002802D003685B69984704
:103FC000F82001F069F90400274E2B4B466003608E
:103FD00040220021083001F0C6FA22000023A0325E
:103FE000A3646565E3642365A365E3655360D364F7
:103FF0001372136013654C3213725372FF222B003D
:104000001340590171188868184F08330740C020C1
:10401000800538438860306807265B01195CAD0075
:10402000B1430E000321314319542300616D6068D0
:1040300011404901411860334B60616D63680A406B
:104040001B6852019B180122FF33997A20000A4312
:104050009A72FFF79FFE074B5C51A6E711002800FC
:10406000FFF7F6FDA1E7C046BC120020FFFFFF8F5F
:10407000300E0020080E00201C5D000070B5050009
:104080000124064BA200D258002A06D021002800A5
:104090000134FFF76DFF0A2CF3D170BDDC0D002059
:1040A0000B4BCAB20B488901C9185301C318596197
:1040B00099690832890B89039961036852019A183A
:1040C0000223D3715179823B0B4353717047C04631
:1040D000300E0020BC120020084B8A00D05810B5CA
:1040E000002803D003689B68984710BDC9B2044BF1
:1040F0004901591888688004800CF6E7080E0020F2
:10410000BC12002010B50C00FFF7E6FF00280CD011
:10411000064BE4B21B68083464011C1980236279E1
:104120005B42134363710223E37110BDBC12002094
:10413000F0B51C002A4B85B01B6807000D000292E9
:10414000002B4AD0274B8A00D058002808D003689B
:1041500022005B68029998470400200005B0F0BD7A
:104160003800FFF7B9FF844204D929003800FFF76F
:10417000B3FF04000121EBB21B4E03935B010193DB
:10418000F21893689B0B9B039360019A3368029823
:104190009B18FF335A7A0A435A72144BA901C91863
:1041A000220001F0D7F9002CD7D029003800FFF702
:1041B00093FF0028D1D14021039B326808335B0173
:1041C000D3181879014319710121D971019BD318B2
:1041D000FF339A7A0A439A72BFE701246442BCE72C
:1041E000B4120020080E0020BC120020F00F0020A6
:1041F00013B56B46DC1D22000123FFF799FF012850
:1042000001D1207816BD01204042FBE770B5CBB24A
:10421000124A13485C01890189180219516091689A
:10422000104D08330D4080214903294340259160FA
:104230009168890B8903916001685A018A1816797F
:104240003543157195796D06FCD55B01C918CB799D
:10425000DB07FCD500198068C0B270BDF00F0020EC
:10426000BC120020FF3F00F070B50D0000211400CB
:10427000FFF7CCFFA04200D9200000230349A3424E
:1042800003D0CA5CEA540133F9E770BDF00F002097
:10429000F0B51E003A4B85B01B680F000192002B51
:1042A00035D08023DB019E4231D80025354B8A0171
:1042B000D3180293002E2CD0334B1B680393FF239B
:1042C0003B401C0000930834039B64011C19A37934
:1042D000DB0921D02D4B2E49186801F077F82D4BC2
:1042E0001721584301F072F82B4BE279920713D44F
:1042F000DA5D002A01D10138F7D20122DA55009B9C
:104300005A01214B9B189A69920B92039A610125DD
:104310006D42280005B0F0BD00221F4B3400DA5575
:104320003F2E09D9009B40245A01174B9B1880222D
:10433000996912060A439A6122000199029801F0D4
:1043400009F9009BA1045A010F4B890C9B18029A92
:104350002D195A619A69361B920B92030A439A618E
:10436000009B039A08335B01D3180222DA71597952
:10437000823A0A435A71019B1B1901939AE7C0467E
:10438000B4120020300E0020BC12002018000020C3
:1043900040420F0070110100250E002070B50D0085
:1043A0001C000D4BAE01F61811003000220001F088
:1043B000D1F8EDB209496D014D196E61AB69084A3A
:1043C00020001340AB61AB69A2049B0B920C9B03D2
:1043D0001343AB6170BDC046300E0020BC120020FC
:1043E000FF3F00F0F7B5104B01901B780F00150050
:1043F000002B0CD10D4B16001C78002C09D00C4E54
:104400000C4834882018641901F0A4F8348028007E
:10441000FEBD002EFBD03A19330000210198FFF7B2
:10442000BDFF2418361AF4E7B0110020B1120020A5
:10443000B2120020B1110020F8B50F0016000024C0
:10444000012A26D9100001F071F80500380001F0AA
:1044500057F9032302220130400028706B70964206
:104460000DD9397800290AD0531CDBB20137A95481
:104470009E4203D00232EC54D2B2F0E7320029005F
:104480000548FFF7AFFF441EA041C4B2280001F069
:1044900057F82000F8BDC046040E0020F0B50024F7
:1044A000012685B0184B0F0069461E700500009468
:1044B000FFF7FDFC154B01A90B806A3BFF3BCB715D
:1044C0005A330B72009B8C7109334B800E4B4E712B
:1044D00008711C703A00092F0FD00D4F09223E7051
:1044E0000C4E280000943480FFF77CFF69462800BA
:1044F000FFF7DDFC328808493C702800FFF772FFA7
:10450000012005B0F0BDC046B01100200902000036
:10451000B1120020B2120020B111002070B5CE7887
:1045200092B005000C00022E0BD18B79C9792C4872
:1045300009021943FFF7B2FF411E8841C0B212B011
:1045400070BD00F023FF210000F0C2FE002803D060
:10455000C117081AC00FF2E7012E0ED1E279A37934
:1045600012021A431F49112A13D8D2B2002A10D0BE
:104570002800FFF737FF0120E1E7032EDFD1A37802
:10458000002B08D1E279A37912021A431649032AB3
:10459000EBD90A78ECE7022B08D1E279A379120271
:1045A00012491A432800FFF747FFC8E7012B05D13E
:1045B000E279A37912021A430D49F3E7032BBED126
:1045C0004122010001A800F0CEFF00F0DFFE01A9AA
:1045D00000F08EFEE279A37912021A4301A9E1E705
:1045E000040E00205C5D00004C5D0000385D0000A2
:1045F000505D0000CBB204495B01C9188B699B0B6D
:104600009B038B617047C046BC12002037B5050084
:1046100048780C000B2810D800F0CEFE061B0F2B9C
:104620000F404561494C5A5D097801AA002906D11D
:10463000022311802800FFF7B1FE01203EBD0023B8
:104640001380284B1B78012B00D11370022300210B
:10465000F0E78A780023012A03D101AA1380224BB4
:10466000F0E7204A1370214A93699B0B9B039361E7
:10467000E3E78C78012C06D100211B4B01AA1C70AA
:1046800011702300D6E70120002CD7D1154B174A13
:10469000187093699B0B9B039361CFE7897828007F
:1046A000FFF730FCC9E72800FFF738FFC6E7012312
:1046B0000F4ACCE70B780020DB06BFD12800FFF7BC
:1046C000DDFCA2780A4B0B481A6000F037FCCAE701
:1046D0000123094ABBE78A78074B1A60C3E7002029
:1046E000ACE7C046240E00202C0E0020BC12002097
:1046F000B4120020C0130020B81200203A4BF7B5C6
:104700001E780500002E5FD1384C23689A8B120763
:104710000DD5082231009A833000FFF799FA102254
:104720002368FF33997A0A439A72314B1E602368DB
:104730009A8B520701D504229A83FF331A7A920684
:1047400003D52022597A0A435A721A7AD20623D5FF
:1047500069460800274AC0CAC0C0A268920B9203EB
:10476000A2604022587902435A7160230A782800D7
:104770001A422AD1FFF74AFF2368FF33002827D0C7
:104780008022997952420A439A711A7A520603D5C5
:104790004022597A0A435A727F2601252368FF3343
:1047A0001E722F00236808377F01DB19DB79002B8D
:1047B00007D0114BAA00D05800280DD003681B6801
:1047C00098470135082DECD1F7BDFFF7BFFBD3E7C4
:1047D00020210A4A9171D8E72900094800F084FB9A
:1047E0002368DF19FE71ECE7B1120020BC12002033
:1047F000B4120020F00F0020080E0020FF500041EE
:10480000C013002010B50248FFF778FF10BDC04666
:10481000040E002080235B000380002343600733E5
:104820000372704783000148C0187047DC0D0020F8
:10483000836C402B09D03F22036CC154036C0133BD
:1048400013400364836C013383647047F7B505003C
:104850006846FFF75FFA00264022019B013B02D326
:104860002E6D961BFAE768460193FEF797FFAB6D36
:104870006846002B4FD1FFF74DFA2900019BA83164
:10488000013B5A1C0CD00C785A1EE4B2002C05D106
:1048900068460193FEF782FF2000FEBD1300F0E79B
:1048A000684601930024FEF779FF2A002900A03210
:1048B0001368A431B4420ED0086898420BD928007E
:1048C000591CEB181160603319780830C9B2FFF732
:1048D000AFFF0134E9E709689942DDD10023136095
:1048E0000133AB656846FFF715FA2F002A00002157
:1048F000019BA837013BF532581CC9D0397010789C
:104900005E1E002805D0117028000193FFF742FABF
:10491000EBE73300F0E7FFF7FDF92900019BF431E5
:10492000013B5A1C06D00C785A1EE4B2002CAFD0C2
:104930001300F6E7684601930024FEF72FFF2A00D4
:104940002900EC321368F031B44202D00868984272
:104950001DD8096899429FD1002368461360AB6552
:10496000FFF7D8F92F002A000021019BF437013B03
:10497000F532581C00D18BE7397010785E1E002884
:1049800011D0117028000193FFF704FAEAE728001C
:10499000591CEB181160AC3319780830C9B2FFF715
:1049A00047FF0134CBE73300E3E710B50400FFF71E
:1049B0004DFF206D10BD10B50400FFF747FF236DBC
:1049C000002B03D0E36CE418207A10BD0120404294
:1049D000FBE7F7B517000E000400FFF737FF684646
:1049E000FFF798F93F2200259446019B013B5A1C92
:1049F00019D0BD4215D2226D002A12D00121226D9C
:104A00004942002A0AD06046E26CA218117AE26C90
:104A100001320240E264226D013A2265715501358E
:104A2000E7E7013BE3E768460193FEF7B7FE28009E
:104A3000FEBD0000014B024A1A607047BC12002004
:104A4000005000412023F7B5474A0500D1690F20E7
:104A50000B43D361012245490B7813430B70444B40
:104A600019788143197006211C7821431970414936
:104A70000C7822430A701A7802401A706022197862
:104A80000A431A703C4B3D4A5A805F78FF09FCD1BB
:104A90003B48FEF7B7FC01233A4C3B4E22683000FE
:104AA00011780B43137080223900520000F05BFD37
:104AB00022689378DB07FCD456621F26334B1B68B1
:104AC000590B980C9B01314030405B0FB14200D133
:104AD00005211F2800D10238072B00D1043B3140AB
:104AE0008901178D01912A4930400F4001993943BE
:104AF0001185118D0700B143080038431085118DD1
:104B00001803244B7F260B4003430C2013850823F6
:104B1000D17881430B430321D3702268D3788B4330
:104B200001390B43D3702268137833401370042388
:104B300022681678334313702268C1241389A400B5
:104B400083431548138103591B021B0A0351802319
:104B50000360137811481943012311702B70002151
:104B600000F05CF8F7BDC046000400405844004126
:104B70003C44004159440041000C00400640000004
:104B800005480000BC120020C012002024608000F4
:104B90003FF8FFFFFF8FFFFF00E100E0C0130020A0
:104BA0000020704770B50F26CB1D0139020032403E
:104BB000D5B22C0000093034092A00DD07341C70FE
:104BC000013B8B42F2D170BD10B50C000B4B186845
:104BD000FFF7E8FF21000A4B08311868FFF7E2FFF2
:104BE0002100084B10311868FFF7DCFF2100064B4D
:104BF00018311868FFF7D6FF202010BD0CA08000E8
:104C000040A0800044A0800048A0800008B4024B6F
:104C10009C46103808BC6047C94B0000704770477D
:104C20003F20704713B56B460268D971073354684B
:104C300019000122A04716BD70B50A260B7892B064
:104C40006E44023305000B703C220021300000F05E
:104C50008AFC394801AC0690384824210790062088
:104C600020776846364AA1742281364A364BA281A3
:104C7000FD3AFF3A8018C177684623390630C1777C
:104C800068460730C17702A8C1770720F27703266C
:104C900008316944C87703A9CE7710212B366E44BA
:104CA0003170092621851F3169440E700CA9053E1B
:104CB0000E7033212380022369440B7006360DA940
:104CC0000E7022493536A1863B216E44307010A803
:104CD0006274E27702703D3269446A440B7013706B
:104CE00040210022E37023716371A37341336B444D
:104CF000218719705A702B7DC039A370A372637716
:104D00000133DBB2A3776A7D0B200D0068441543A5
:104D1000C5773120684403703A23501C6B441870E7
:104D2000412302320A436B441A7021004222084890
:104D3000FFF758FB12B070BD1001042402060524D1
:104D40000904000001020000080B00000705000034
:104D5000040E002008B4024B9C46103808BC604783
:104D6000394C000070B5027D0B790C0000259A4289
:104D70000BD10B784E78A12B09D1212E05D107221A
:104D80001B491C48FFF72EFB0135280070BD212B65
:104D9000FBD1202E22D1072215491648FFF764FACD
:104DA0009622134BD200196891421DD1DB79DB07A3
:104DB0001AD4FA20FEF72CFB00210E48FFF71AFC4C
:104DC0000125232EE1D1E378A2781B0213430A4A7E
:104DD000002108481360FFF70DFCD6E7222EEFD123
:104DE0008A78034BDA71DBE7FEF71CFBE4E7C04689
:104DF0000C000020040E00200800002008B4024B24
:104E00009C46103808BC6047654D000010B508226C
:104E10000021024800F0A7FB10BDC0460C00002096
:104E200010B5417D006A0131FFF756F9034B1B684D
:104E300001335A1E9341181810BDC04614000020BB
:104E400010B5417D006A0231FFF75CF910BD10B565
:104E5000417D006A0231FFF723F910BD70B50D00E6
:104E6000417D0400130002312A00006AFFF710FAA6
:104E7000002801D10123636070BD000010B5054C0E
:104E800023685A1C04D103685B69984703002060BB
:104E9000180010BD14000020074A0300106810B568
:104EA000411C03D001235B42136010BD597D186A79
:104EB0000131FFF79DF9F8E71400002010B5FEF767
:104EC00009FAF423FF330024984207D9044B0A203F
:104ED000DC79631E9C41E4B2FEF732FA200010BD7B
:104EE0000C0000200020704770470000FA239B0050
:104EF00010B583600F4B0022C38203002833836107
:104F00000D4B04004260C261180050332361083029
:104F1000631D21622060DA778323A362813BE36211
:104F20008033236300F032FA2100103100F0FFF9E2
:104F3000200010BD03020000705D0000022110B5CA
:104F4000094B1A68437D5B01D318FF339C7A2143D8
:104F50009972437D0133DBB25B01D3180122FF3329
:104F6000997A0A439A7210BDBC12002010B502490A
:104F70000248FFF7BBFF10BD040E0020C013002045
:104F800070B50D6806000C002800064900F01EFAF6
:104F90003368044918183060280000F09DFA216039
:104FA00070BDC04600CA9A3BFA21314B10B5186853
:104FB000890000F00BFA2F4B0138984256D82E4941
:104FC0002E4A4860C020136A00061B021B0A0343D6
:104FD0001362002407238C600B608021136A09068A
:104FE0001B021B0A0B431362FC22254B196A0A435E
:104FF0001A62FC22196A92010A431A62A022196AF3
:10500000D2020A431A62E0B200210134FEF772F8BC
:105010001F2CF8D11B4B1C005A7852B2002AFBDB24
:10502000194A5A80194B1A00597EC9090129FBD027
:10503000E421C90099803F21D970537EDB09012BFF
:10504000FBD0C02300205B011361907000F028F8B2
:1050500063785BB2002BFBDB0D4B0E4A6380D37988
:10506000DB09012BFBD04123537010BDFEE7C04686
:1050700018000020FFFFFF0010E000E000ED00E05E
:1050800000040040000C00401E40000000400042B0
:105090002140000000480042704700207047000097
:1050A000164A00B51300517EC9090129FBD0013809
:1050B000042816D81969124A0A400F211A615A7831
:1050C0008A4300F079F90308060B0300110001225E
:1050D0000A435A7000BD11000322F9E711000222B1
:1050E000F6E7F02311691B050B430F211361537879
:1050F0008B43190002230B435370EBE7004000423F
:10510000FFFFFFF01E22F0B5504851494368514D52
:1051100093431A0002231343436008238A6913430D
:10512000FE228B612B68D2039B0213404A4A134331
:105130004A4A936113000422DC681442FCD0012423
:10514000474A14701678264203D0567876B2002E5D
:10515000F8DB01249460547864B2002CFBDB414CF2
:105160005460547864B2002CFBDB8224E401548048
:10517000547864B2002CFBDB02249C840E34DE687D
:105180002642FCD0384CDC621024DE682642FCD07B
:105190002C68A40E3F2C00D1203C9E6A334FA40201
:1051A0003E4034439C629C6A314EA40AA4023443BC
:1051B0009C62304CDC6200249C841034DE68264201
:1051C000FCD02D4C9C841024DE682642FCD00224A6
:1051D0009E8C34439C841024DE682642FCD000243C
:1051E0009460547864B2002CFBDB244C54605478F7
:1051F00064B2002CFBDB1C6A214E344080261C620A
:105200001C6AB4431C62032393601E4B53605378A3
:105210005BB2002BFBDB0023FF240B721A4A4B729C
:105220008B72CB72194B1A60194A2B6811689A0657
:105230005B01C90E2340520F12020B431343154A60
:1052400013858023426813434360F0BD0040004152
:1052500000040040246080000606000000080040B2
:10526000000C004001040100B905FF7DFF03FFFFB2
:10527000FF01000080BB0A1C24050000000703009A
:10528000FFFCFFFF03060100006CDC021800002099
:10529000206080000040004210B500F047F910BDCA
:1052A00010B500F04DF910BD70B50E000025446832
:1052B000002C0BD0236831005B6820009847002841
:1052C00002DB2D18E468F3E701256D42280070BD6C
:1052D00070B50D004468002C08D0236829009B6835
:1052E00020009847002802D1E468F4E7200070BD50
:1052F00070B50D004468002C07D0236829002000F9
:10530000DB689847E4682D18F5E72C7070BD70B520
:105310000D004468002C08D0236829001B68200079
:105320009847002802D1E468F4E7200070BDF8B582
:1053300042788B790D00017A9B18040000208B4283
:1053400022DC6368834219D16560002623786A7184
:10535000EA792B719B182370AB79B34213D9AB68F0
:10536000B7006078DF19FFF75DFA3B68013603602C
:105370006378F6B201336370EEE70B00D968002959
:10538000FBD1DD60E1E70120F8BD000070B501262A
:10539000054D064C2B68334203D12000FFF73AFA43
:1053A0002E60200070BDC046F4130020F8130020CA
:1053B00010B5FFF775FF10BD02B4714649084900EA
:1053C000095C49008E4402BC7047C0460022430875
:1053D0008B4274D303098B425FD3030A8B4244D3BD
:1053E000030B8B4228D3030C8B420DD3FF220902FF
:1053F00012BA030C8B4202D31212090265D0030BBE
:105400008B4219D300E0090AC30B8B4201D3CB03B3
:10541000C01A5241830B8B4201D38B03C01A5241F5
:10542000430B8B4201D34B03C01A5241030B8B42F7
:1054300001D30B03C01A5241C30A8B4201D3CB02E2
:10544000C01A5241830A8B4201D38B02C01A5241C7
:10545000430A8B4201D34B02C01A5241030A8B42CA
:1054600001D30B02C01A5241CDD2C3098B4201D3E2
:10547000CB01C01A524183098B4201D38B01C01A60
:10548000524143098B4201D34B01C01A52410309D7
:105490008B4201D30B01C01A5241C3088B4201D386
:1054A000CB00C01A524183088B4201D38B00C01A33
:1054B000524143088B4201D34B00C01A5241411A5A
:1054C00000D20146524110467047FFE701B5002067
:1054D00000F006F802BDC0460029F7D076E7704715
:1054E0007047C04670B500260C4D0D4C641BA410CF
:1054F000A64209D1002600F049F90A4D0A4C641B66
:10550000A410A64205D170BDB300EB5898470136F0
:10551000EEE7B300EB5898470136F2E78000002031
:1055200080000020800000209400002010B5034B74
:105530000100186800F06AF810BDC0461C00002089
:1055400010B5034B0100186800F016F810BDC046F6
:105550001C000020002310B59A4200D110BDCC5C85
:10556000C4540133F8E703001218934200D1704786
:1055700019700133F9E7000070B50500002910D05B
:105580000C1F2368002B00DAE418280000F0BFF895
:105590001D4A1368002B05D163601460280000F0D9
:1055A000B7F870BDA34209D9216860188342F3D1CE
:1055B00018685B6841182160EEE713005A68002AFA
:1055C00001D0A242F9D919685818A0420BD120681D
:1055D0000918581819608242E0D1106852684118C1
:1055E00019605A60DAE7A04202D90C232B60D5E794
:1055F00021686018824203D1106852684118216006
:1056000062605C60CAE7C04604140020032370B5E2
:10561000CD1C9D43083506000C2D1ED20C25A94239
:105620001DD8300000F073F8254A146821000029C5
:1056300019D1244C2368002B03D1300000F04EF820
:1056400020602900300000F049F8431C2BD10C23C6
:105650003000336000F05CF803E0002DDFDA0C234B
:105660003360002070BD0B685B1B19D40B2B03D972
:105670000B60CC18256003E04B688C420DD11360A1
:10568000300000F045F8200007220B30231D904326
:10569000C31AE7D05A42E250E4E763600C00EFE738
:1056A0000C004968C3E70323C41C9C43A042E1D01B
:1056B000211A300000F012F8431CDBD1C7E7C046C6
:1056C000041400200814002010B5034B0A00010048
:1056D000186800F01EF810BD1C000020002370B5F3
:1056E000064C05000800236000F042F8431C03D17B
:1056F0002368002B00D02B6070BDC0461014002022
:105700000023C25C0133002AFBD1581E704770474A
:105710007047F8B507000D001600002905D11100EB
:10572000FFF774FF04002000F8BD002A03D1FFF743
:1057300023FF3400F7E700F012F82C00B042F2D259
:1057400031003800FFF762FF041EECD02900320060
:10575000FFF700FF29003800FFF70EFFE3E70B1FFC
:105760001B68181F002B01DA0B58C0187047000087
:10577000044A1368002B00D1034B1818106018005E
:105780007047C0460C14002014140020F8B5C04621
:10579000F8BC08BC9E467047F8B5C046F8BC08BCCB
:1057A0009E4670470000000000000000FD20000041
:1057B0002D2100006921000071210000000000007F
:1057C00000000000FD250000C9260000792100002E
:1057D000812100000000000000000000D52500002D
:1057E00095260000892100009121000000000000A2
:1057F00000000000F124000077270000992100003C
:10580000A12100000000000000000000452400006D
:10581000AF280000A9210000B12100000000000015
:1058200000000000B124000037290000B921000069
:10583000C1210000000000000000000081220000E3
:10584000092B0000C92100003966306539386264CF
:1058500061363539383139383664646635336166D6
:105860006137613430653439003131616264373316
:10587000316332353933333236316364363138335C
:1058800062643132643632393500726F7373657217
:1058900069616C5F6D7367732F4C6F670030616473
:1058A00035316638386663343438393266386331B6
:1058B0003036383430373736343630303500726F62
:1058C0007373657269616C5F6D7367732F546F706A
:1058D0006963496E666F00726F7373657269616C9C
:1058E0005F6D7367732F5265717565737450617264
:1058F000616D00316536333261643337396336396F
:1059000065653562396334336565663162613633A6
:1059100038386400776865656C5F746F6B796F5FAA
:105920007765696C692F656E636F646572004D659C
:1059300073736167652066726F6D20646576696355
:10594000652064726F707065643A206D6573736171
:105950006765206C6172676572207468616E206291
:1059600075666665722E0063643731363663373488
:105970006335353263333131666263633266653570
:1059800061376263323839007374645F6D736773B3
:105990002F54696D65003231373664656361656324
:1059A0006263653738616263336239366566303405
:1059B000396661626564007374645F6D7367732F29
:1059C0004865616465720000010000001700000076
:1059D0000300000004000000FF00FFFFFFFFFF00C6
:1059E0000100000016000000030000000400000099
:1059F000FF00FFFFFFFFFF00010000000A000000A2
:105A0000080000001C000000FF00000500050A005F
:105A1000010000000B000000080000001C00000056
:105A2000FF00010501050B00000000000700000059
:105A3000080000001C000000070001010101FF0038
:105A40000000000005000000080000001C0000002D
:105A5000050001000100FF0000000000040000003C
:105A6000080000001C000000040000000000FF000F
:105A70000000000006000000080000000400000014
:105A80000600FFFFFFFFFF00000000001200000003
:105A90000800000004000000FF00FFFFFFFFFF0000
:105AA0000000000014000000080000002C000000AE
:105AB000FF000200020004000000000015000000CA
:105AC000080000002C000000FF0003000300050098
:105AD0000000000010000000020000001C00000098
:105AE000FF000002000200000000000013000000A0
:105AF000020000001C000000FF0001030103FF0082
:105B0000000000001100000002000000040000007E
:105B1000FF00FFFFFFFF0100000000000200000087
:105B200001000000060000000000FFFFFFFFFF0073
:105B3000010000000200000001000000040000005D
:105B40000A00FFFFFFFF0200000000000B00000042
:105B5000010000002C000000130003000300FF0000
:105B6000000000000A000000010000002C000000FE
:105B7000120002000200FF00010000000800000007
:105B800003000000060000000200FFFFFFFFFF000F
:105B900001000000090000000300000018000000E0
:105BA00003000104010409000000000009000000D6
:105BB00001000000040000001100FFFFFFFFFF00D4
:105BC00001000000030000000100000004000000CC
:105BD0000B00FFFFFFFF0300000000000C000000AF
:105BE0000200000000000000FF00FFFFFFFFFF00B9
:105BF000000000000D000000020000000000000096
:105C0000FF00FFFFFFFFFF00000000000E0000008C
:105C10000800000000000000FF00FFFFFFFFFF0082
:105C2000000000000F000000020000000000000063
:105C3000FF00FFFFFFFFFF00000000001B0000004F
:105C40000800000000000000FF00FFFFFFFF0F0042
:105C50000000000008000000080000000400000030
:105C6000FF00FFFFFFFFFF00000000001C0000001E
:105C70000800000004000000FF00FFFFFFFFFF001E
:105C80000000000016000000020000001C000000E0
:105C9000FF000004000406000000000017000000E0
:105CA000020000001C000000FF00010401040700C6
:105CB00000000000180000000600000000000000C6
:105CC000FF00FFFFFFFFFF000000000019000000C1
:105CD0000600000000000000FF00FFFFFFFFFF00C4
:105CE0000000000000000000493B0000193C0000DB
:105CF0003B3700008737000035370000E53B0000E8
:105D00004B37000025370000F537000063370000EF
:105D1000213700000000000000000000CD3D000021
:105D2000D3490000AB490000B7490000413C0000E6
:105D3000433C0000233D000041726475696E6F2092
:105D40004E414E4F20333320496F54000403090461
:105D500041726475696E6F204C4C43001201000261
:105D6000EF020140412357800001010203010000BE
:105D70000000000000000000254C00005D4E000007
:105D8000214C0000414E0000214E0000994E0000C1
:105D90007D4E00001D4C00001F4C00000D4E000009
:105DA000BD4E00004F4E0000394C0000A14B0000DA
:105DB000654D0000C94B0000F0FFFFFF0000000030
:105DC000FD4D0000554D0000E54E00000D4C00005B
:045DD00000000000CF
:105DD40064000000FFFFFFFFFFFFFFFF00C20100A0
:105DE40000000800FFFFFFFF40420F0020000020DA
:105DF400000000000000000000000000000000009F
:105E0400000000000000000000000000000000008E
:105E1400000000000000000000000000000000007E
:105E2400000000000000000000000000000000006E
:105E3400000000000000000000000000000000005E
:105E4400000000000000000000000000000000004E
:105E5400DD2000008D2D0000CD2E0000354A00000D
:085E64006D4F0000B5200000A5
:04000003000033A125
:00000001FF
